:10000000D4C100000C94581BEDC10000EBC10000EE
:10001000E9C10000E7C10000E5C10000E3C1000044
:10002000E1C10000DFC100000C942C200C94F820EA
:100030000C940A1AD7C10000D5C10000D3C100003A
:10004000D1C10000CFC10000CDC10000CBC1000074
:10005000C9C100000C94811AC5C10000C3C10000D1
:10006000C1C10000BFC10000BDC10000BBC1000094
:10007000B9C10000B7C10000B5C10000B3C10000A4
:10008000B1C10000AFC10000ADC10000ABC10000B4
:10009000A9C10000A7C10000A5C10000A3C10000C4
:1000A000A1C100009FC100009DC100002E001E00E4
:1000B0001F002000210022002B0014001A0008005D
:1000C00015001700290004001600070009000A00A7
:1000D000E1001D211B24060019000500000000009E
:1000E00050004F0021522C0000000000E2003500BB
:1000F000E3002A00230024002500260027002D000D
:100100001C0018000C001200130031000B000D0041
:100110000E000F00330034001100100036003700CD
:100120003800E50028002252520051000000000073
:100130002B00E300E400E600000000002E021E0297
:100140001F022002210222024600010001000100DC
:1001500001002F003502E300E20001000100010070
:10016000E1000100010001002F0226020000000052
:100170000100010001000100000000000100010079
:1001800001000100230224022502010001002D02CA
:10019000300001000100010001004C00500051003E
:1001A00052004F002D0031022702300201000100F1
:1001B0000100E0000100010001000100000000005A
:1001C00001000100010001000000000045003A00AC
:1001D0003B003C003D003E00A80001000100010082
:1001E00001002F00A900AC00AE00AB00010001002F
:1001F000AA000100010001002F02260200000000F9
:1002000001000100010001000000000001000100E8
:10021000010001003F004000410042004300440053
:100220003000010001002E000100010050005100CB
:1002300052004F00010001002702300201000100BE
:1002400001000100010001000100010000000000A8
:100250000100010001000100000000002C03440027
:1002600061006300740079006C002D004D00610096
:100270006E00750066006F0072006D00200028009F
:10028000350078003600290000000E03740073006A
:1002900068006F0072007400000004030904090282
:1002A0003B00020100A0FA09040000010301010063
:1002B0000921110100012244000705810308000102
:1002C00009040100010300000009211101000122BD
:1002D0007B000705820320000112010002000000DC
:1002E000084D44363501000102000105010902A153
:1002F0000185020901A10005091901290815002538
:100300000195087501810205010930093115812522
:100310007F95027508810609381581257F9501753D
:10032000088106050C0A38021581257F950175089C
:100330008106C0C005010980A101850319012AB702
:1003400000150126B700950175108100C0050C0944
:1003500001A101850419012AA002150126A0029518
:100360000175108100C005010906A101050719E00A
:1003700029E7150025019508750181029501750889
:1003800081010507190029FF150026FF0095067554
:100390000881000508190129051500250195057535
:1003A000019102950175039101C011241FBECFEF89
:1003B000DAE0DEBFCDBF11E0A0E0B1E0E8E9F7E4AC
:1003C00002C005900D92AA3AB107D9F722E0AAEA35
:1003D000B1E001C01D92A13DB207E1F70E94DF121A
:1003E0000C9452230DCE8330C8F46C30B8F44630F0
:1003F000A8F450E096E0699F400D511D112498E447
:10040000899F400D511D1124FA01EE0FFF1FE45585
:10041000FF4F85919591282F822F089521E090E03C
:10042000FBCFE1CF089581E0089581E00895FBCFEF
:10043000089581E0089581E00895FDCF089508951D
:100440000895FDCF089508950895A6E0B0E0EBE289
:10045000F2E00C94C52249835A839E833091B10106
:1004600089819A81311117C03E81311589F021159A
:1004700079F06CD5182F682F89819A8146D56981CA
:100480007A81812F0E94840D2696E3E00C94E1226C
:100490004DD5182FF4CF5AD569817A81F3CFFC015D
:1004A000262F408151816281738184819581CDCFD6
:1004B000CF93DF93EC0161E0F2DFBE01B6DF81157F
:1004C00029F061E0CE01EBDFBE01B1DFDF91CF911A
:1004D00008950F931F93CF93DF93EC0160E0DFDF6C
:1004E0008C01BE01ADDFBE01C801ABDFDF91CF9152
:1004F0001F910F9108950F931F93CF93DF93EC01FA
:1005000061E0CDDF8C01BE0194DF811106C080E087
:10051000DF91CF911F910F910895BE01C8018DDF2A
:100520008115A9F3BE01C8010E94E517811579F371
:10053000BE01C8010E945C14811549F3BE01C801C7
:100540000E943314811519F3BE01C8010E94CC0E1C
:100550008115E9F2BE01C8010E94DE0E8115B9F2D3
:10056000BE01C8010E94F80ED3CF21E030E002C0E6
:10057000220F331F8A95E2F7C90102C4CF93C82F17
:1005800081E090E00C2E02C0880F991F0A94E2F7D8
:100590000E94A90B8C2FE9DFCF91089581E0089587
:1005A00081E00895FBCF0895CF93C82F98D38C2F67
:1005B000F7DF8C2FF7DF8FEF94E32CE08150904032
:1005C0002040E1F700C00000CF91089581E0ECDF0A
:1005D0000C94A51A80E0E8DF0C94B61A34DF0E9470
:1005E0009E1917C018D030DF0C94A21981E008952D
:1005F0000895CF93DF93D82FF9DFC82F811511F01D
:100600008D2FF6DF8C2FDF91CF9108950895F1CFD4
:10061000089580E0FCCF0E942C18F9CFCF930E9460
:100620002C18C82F8091AC018C1771F0C093AC01CD
:100630000E94751A6093AD017093AE018093AF0173
:100640009093B0018C2FE3DFCF910895ADE0B0E03F
:10065000ECE2F3E00C94C622488759876A877B87CF
:100660008C879D8791118ED71F8286E0FE01389678
:100670009E012F5F3F4FD90101900D928A95E1F7BE
:100680008D8181110CC029813A814B815C816D8102
:100690007E818F81C2D62D96E2E00C94E222CE01BB
:1006A000019606DF8111EFCFF6CFFC0124812130C6
:1006B00019F4808191817DC40895611521F00E9413
:1006C000B8150C946D160E94F815FBCFCF93C82F68
:1006D0008115B9F08238B9F40E94411881FD11C02A
:1006E00089E30E940019B7D78FEF97EE23E081507E
:1006F00090402040E1F700C0000089E30E94061905
:10070000AAD7CF910895833899F40E94411880FDAB
:10071000F8CF83E50E9400199ED78FEF91EE24E079
:10072000815090402040E1F700C0000083E5E6CF13
:10073000843899F40E94411882FDE3CF87E40E9437
:10074000001989D78FEF91EE24E08150904020402E
:10075000E1F700C0000087E4D1CF8450813A90F4E3
:100760008C2F0E9467138111CCCF8C2F0E94C4184C
:10077000811521F08C2F0E9406196DD78C2F0E94B5
:100780000019BECF8C2F805E883048F481E0C1FD17
:1007900084E0C0FD880FC2FD8295D5D6B1CF8C2FE5
:1007A000855A833030F48C2F8452990B0E94621842
:1007B000A8CFEC2FE85AEB3150F4F0E0EE0FFF1F1A
:1007C000E15DFE4F808191810E9489189ACF8C2F24
:1007D0008D5C833108F095CF61E08C2F6EDF91CF77
:1007E000811509F44EC0823861F40E94411881FFDE
:1007F00048C089E30E9400192ED789E30E94061998
:100800002AC7833851F40E94411880FF3AC083E51B
:100810000E94001920D783E5F1CF843851F40E945B
:10082000411882FF2EC087E40E94001914D787E484
:10083000E5CF982F9450913A08F3982F905E983016
:1008400050F4982F81E091FD84E090FD880F92FD97
:1008500082957FD6D5CF982F955A933020F480E09B
:1008600090E00C946218982F985A9B3120F480E005
:1008700090E00C948918982F9D5C933110F460E0FF
:100880001CCF08951F93CF93DF93182FEB011EDF2A
:10089000209731F4812FA4DFDF91CF911F9108952C
:1008A0008FE99FE00197F1F700C000002197F0CF9A
:1008B00060E570E0893311F060E070E0E3CF81150E
:1008C00011F041D6C8C60895811511F042D6C3C6AD
:1008D0000895A0E0B0E0EFE6F4E00C94C0226C01D3
:1008E000D62FC72FFC011581068102950F7020D6E7
:1008F000E82E8115E9F0E12E1115D1F08C2F807FC3
:10090000803461F08D2F805E8830E0F08C2F807E07
:10091000803221F4D230B0F00115A1F08091A10213
:1009200082FF10C082E0B3D603D691E08927E82E7B
:10093000EC2FE295EF70C03C78F5F0E0EC5AFC4DFE
:100940000C94B022E12CF4CF0C2F0F70C03110F0BA
:100950000295007F111581F0011549F08D2F805E01
:10096000883010F0D11105C0802FEDD574D68D2FB1
:1009700040C0802FF9D5FACF8D2F32DF011561F0FD
:100980008D2F805E883010F0D11103C0802FE1D50B
:1009900002C0802FEFD55FD6E11409F4B3C0C4D5EF
:1009A00080FDB0C0F6011582B9D51AD2C60168D152
:1009B000B5D524D2A7C08C2F8F70F82EC07FC0323F
:1009C00019F0F29480EFF822D13038F079F1111556
:1009D00009F438C00115C9F0CACF8091A10282FD87
:1009E00010C0111541F0F11419F08F2DACD533D68C
:1009F00080E06CDED1CF80E0F3DEF11469F28F2D60
:100A0000C6CF111551F0013018F48F2D58DFC4CF27
:100A100009F0C2CF8F2DCAD5BFCF0111BDCF8F2D09
:100A200053DF8F2DCED58F2DB3D5B6CF111521F035
:100A3000063008F0B1CFE9CF053008F0ADCF8F2DEB
:100A400043DFAACF0115D9F3D93349F48FEF97EEDD
:100A500023E0815090402040E1F700C000008D2F3E
:100A6000BFDE9ACF8C2F869586958370813060F09B
:100A700009F092CF8D2F9C2F9370111102C080E04E
:100A800090E00E94891888CF8D2F9C2F93701111B0
:100A900002C080E090E00E9462187ECF612F8D2F0F
:100AA0000CDE7ACF8C2F8370C1F5111128C04D2F29
:100AB000429546954770440F440F2D2F2F7030E01C
:100AC000042E02C0220F331F0A94E2F780E090E068
:100AD000D4FF09C08FE090E002C0880F991F4A95AB
:100AE000E2F780959095C695C695C370822B932B9F
:100AF000C23079F0C33079F0C13049F04AD10E9458
:100B00002C1885DDCDB7DEB7E8E00C94DC223AD1B5
:100B1000F6CF46D1F4CF34D1F2CF111559F1C0FF41
:100B2000EECF4D2F429546954770440F440F2D2F21
:100B30002F7030E0042E02C0220F331F0A94E2F718
:100B400080E090E0D4FF09C08FE090E002C0880F01
:100B5000991F4A95E2F780959095C695C695C37002
:100B6000822B932BC23061F0C33061F0C13031F081
:100B70006AD1C5CF823008F4C2CFD3CF5DD1BFCF09
:100B800069D1BDCF1AD1BBCFCF70111529F08C2FF1
:100B900027D18D2F94DEB3CF8D2F96DE8C2F2ED1C3
:100BA000AECFD23F31F168F4D03FC1F0D13F89F0F0
:100BB000111509F43EC0011509F438C08D2F86DDEA
:100BC0009ECFD33FE1F0D43F99F78091A10282FDFF
:100BD0001EC08C2F8F71111511F30FC0111539F034
:100BE000053008F08CCF8C2F8F7118D188CF06304C
:100BF000F8CF8C2F8F711111D2CFF2D080CF111579
:100C000021F08C2F8F71E3D07ACFDED078CF111501
:100C100029F063E08C2F8F7123D571CF81E037D518
:100C2000023008F46CCF82E032D569CF8C2F8F71FF
:100C3000E4CF011571F0D93349F48FEF97EE23E03B
:100C4000815090402040E1F700C000008D2FC8DDAA
:100C500056CF8C2F8F71A3CF0F931F93CF93DF931A
:100C6000EC01688179818D81ADD18C01FAD087D07A
:100C7000B801CE012EDEDF91CF911F910F91089523
:100C8000CF93DF93EC018C81811581F0CE0133DCB1
:100C900081110FC04DD4811549F08D81811531F03E
:100CA0008091A10282FF02C082E0F1D4DF91CF9156
:100CB0000895CE01D1DFCE010CDCF8CF80E090E0CA
:100CC0000E94621880E090E00E9489185BD4C3D42F
:100CD0000E9486160C946D160E940C19EFCF41D419
:100CE000FBCF282F92959F70963099F060F4925F19
:100CF0009F70923030F4203FB1F038F481E0283E0C
:100D000038F080E008959A5FF3CF81E0243FC9F77F
:100D1000089591E0813F09F090E081E0283E08F0DD
:100D200080E0892B089581E00895FC01248121153C
:100D300021F0808191813DD1D4CF80E00895A6E05B
:100D4000B0E0E5EAF6E00C94C6222696E2E00C94C8
:100D5000E222A7E0B0E0EFEAF6E00C94C622279684
:100D6000E2E00C94E2220895FECF0895FDCF0895AD
:100D7000FADFFCDF8093D8019093D901089508959C
:100D8000F7CF08952091D8013091D901822B932B70
:100D9000EFCF2091D8013091D90182239323E8CF5E
:100DA0002091D8013091D90182279327E1CFDBCF61
:100DB0000895FDCF0895D7CF0895FDDFFADF809322
:100DC000D6019093D701089580E090E0F6CF21E01E
:100DD00030E002C0220F331F8A95E2F7C901EDCF40
:100DE00021E030E002C0220F331F8A95E2F78091A4
:100DF000D6019091D701822B932BDFCF21E030E0F9
:100E000002C0220F331F8A95E2F72095309580911A
:100E1000D6019091D70182239323CFCF21E030E0F8
:100E200002C0220F331F8A95E2F78091D60190917C
:100E3000D70182279327C1CF2091D6013091D701C6
:100E4000822B932BBACF2091D6013091D7018223E8
:100E50009323B3CF2091D6013091D70182279327D6
:100E6000ACCF0895CF93C1E061FDC4E060FDCC0F2D
:100E700062FDC29593E0769567959A95E1F7660FC6
:100E8000771F660F771F460F571FFA0140E050E0AB
:100E900090E06191DF019C01042E02C036952795F8
:100EA0000A94E2F72695220B26272C2326272E9339
:100EB0004F5F5F4F4430510561F7CF910895A82FE0
:100EC000A77023E0969587952A95E1F7880F991FDB
:100ED000880F991F680F791FFB0140E050E080E008
:100EE000219130E00A2E02C0369527950A94E2F748
:100EF0002170042E01C0220F0A94EAF7822B4F5F63
:100F00005F4F4430510561F70895262F9C3068F4F7
:100F1000863058F4682F70E086E0989F600D711D50
:100F2000112442EB51E0822F9DCF0895292F9C3050
:100F300058F4863048F490E062EB71E036E0239F8D
:100F4000800D911D1124BBCF80E00895CF92DF92D8
:100F5000FF920F931F93CF93DF936C010091D60103
:100F60001091D7018091D8019091D901082B192BAC
:100F7000CFE0D0E081E090E00C2E02C0880F991FF6
:100F80000A94E2F780239123892B61F4219790F74B
:100F9000F12C8F2DDF91CF911F910F91FF90DF905A
:100FA000CF900895FC2EB6018C2FB9D5019771F31F
:100FB000F0CFCF93DF93EC01C9DFBE01B0D5DF9155
:100FC000CF9108951F93CF93DF93EB019091B101DF
:100FD000911531F0CB01EDDFDF91CF911F91089595
:100FE000811551F0CB01B2DF182F682FCE018DDFB4
:100FF000BE01812F94D5F0CFCB0198DF182FF8CF09
:101000000F931F930091DA018091DB01801303C0DD
:101010001F910F91089587E0089FF0011124E45279
:10102000FE4F2081318142815381648175818681A7
:1010300090DE0F5F1F4F0770E7CF209114023091B1
:10104000150240911602509117026091180270919A
:10105000190280911A027DCE80911A02803170F4BB
:1010600080911902811551F0E091DA012091DB01A4
:1010700030911502409114022E1301C00895BF0152
:1010800087E0E89FF0011124DF01A452BE4F1496BF
:101090008C911497811549F111968C9111978313B6
:1010A00024C08C91841321C015968C9115978111C1
:1010B0001CC012968D919D91A0911602B0911702BD
:1010C0008A1B9B0B883C910580F480911A028F70DB
:1010D000806180931A02EE51FE4F80818F70806193
:1010E000808384E192E0CCDD8BCF6F5F7F4FFB018B
:1010F000E770C2CF8F929F92AF92BF92DF92EF9232
:10110000FF920F931F93CF93DF93CDB7DEB72D9749
:101110000FB6F894DEBF0FBECDBF8C0186E0F8019C
:10112000DE01189601900D928A95E1F7F801F5809D
:10113000848194E1892E92E0992E90911802911168
:1011400017C0811509F416C1F11409F455C1C8017D
:10115000ECDD811509F450C187E0F801D40101905C
:101160000D928A95E1F7C401A0DA76DF66DF02C14D
:101170007081A280B380D090190220911602309124
:101180001702A501421B530BD11409F4F6C0483CC9
:10119000510508F0C5C0811509F4ECC03091150265
:1011A000218180911A02803108F08CC0EF2C23132A
:1011B00026C030911402371322C0F11027C08F705F
:1011C000806180931A0239DF84E192E059DD8091D9
:1011D0001A02F8018683E12C8E2D2D960FB6F89415
:1011E000DEBF0FBECDBFDF91CF911F910F91FF905A
:1011F000EF90DF90BF90AF909F908F900895809177
:10120000DA013091DB01E82FF114D1F080911A025C
:10121000816080931A02DFCFAF0167E06E9FF0011B
:101220001124E452FE4F6181261306C060817613BB
:1012300003C065816111EBC04F5F5F4FFA01E7703A
:10124000E313EACF381310C088859985B2DE292FC1
:1012500022952F709034E0F02A5F2F70223060F1D9
:10126000C8010EDDED2CB8CFAC0167E0869FF00120
:101270001124E452FE4F8181281306C08081781327
:1012800003C085818111A7CF4395842F8770DACF62
:101290009F70223038F0911551F0F801968190310D
:1012A00030F49ACF911519F0811509F495CF805E2D
:1012B000883008F491CFD4CF803F08F48DCF815F80
:1012C0008330F7CF231307C020911402271303C0E4
:1012D000F11409F473C0C80128DD811509F48CC02C
:1012E000F11409F489C080911A02803280F02091B3
:1012F00014023091150229833A83AB82BC8290910B
:1013000018029D831E828F83CE010196B9DC87E08F
:10131000F801A4E1B2E001900D928A95E1F725CFA2
:1013200020911A02203188F4488559856A857B8589
:101330008C859D8504DD84E192E0A2DCF40187E0E8
:1013400011928A95E9F779DE46CF811599F03091AF
:10135000150281813813BFCF809114028713BBCF50
:10136000F110B9CF2683C8018BDCF40187E011921C
:101370008A95E9F7EE24E3942FCF483C510508F015
:101380003EC08115B9F3F114B9F1209115028181A4
:10139000281329C080911402871325C080911A0256
:1013A00080FD18C08031B0F08683807F803F39F0A7
:1013B0008681982F907F905F8F70892B8683C801DC
:1013C0005FDC87E0F801A4E1B2E001900D928A951C
:1013D000E1F7CCCE87E0F801A4E1B2E001900D92F4
:1013E0008A95E1F7C7CFC801A0DC811190CF809129
:1013F0001A02816080931A02C80142DCBBCF488583
:1014000059856A857B858C859D8599DC97CF84E19C
:1014100092E036DCE4E1F2E092CFAEE0B0E0E3E16E
:10142000FAE00C94C522288739874A875B876C8746
:101430007D878E87CE0108965DDE6C85811599F0DB
:10144000611539F0288539854A855B857D858E85CE
:1014500080DC8091DA019091DB0189133DC02E96EA
:10146000E3E00C94E12287E09E01285F3F4FF90101
:1014700027503109D90101900D928A95E1F7611544
:1014800041F3A091DB018A2F90E08395877090E073
:10149000AC012091DA012417150691F097E09A9F8C
:1014A000D0011124A452BE4F9E012F5F3F4FF9017E
:1014B00001900D929A95E1F74093DB01A1DDC9CF30
:1014C0000EDC1092DB011092DA01E4E1F2E087E039
:1014D00011928A95E9F7BDCF17E0189FC00111243A
:1014E00084529E4F07DE811509F4B9CFE091DA01ED
:1014F0001E9FF0011124E452FE4F20813181428170
:10150000538164817581868124DC8091DA01909118
:10151000DB01019687708093DA019BCF80912302D3
:101520008695869586950895809123028770089503
:1015300090912302977081E0911101C080E008959D
:1015400080912F02089590912F02982B90932F0253
:1015500008958095982F80912F02892380932F02E0
:10156000089510922F02089590912E02982B909337
:101570002E0208958095982F80912E0289238093C2
:101580002E02089510922E0208950895FECF089518
:1015900090912402292F282329F080958923809374
:1015A0002402F4CF08950895FECF08959091250266
:1015B000292F2823281721F0982B90932502F4CF68
:1015C000089590912502292F282329F080958923B9
:1015D00080932502E9CF089580912502811521F09D
:1015E0001092250280E0E0CF08950F931F93CF93D0
:1015F000DF9380910001909101018C01C0912F0235
:1016000080912E02C82B80912502811529F0C82BCC
:101610000E94B0188111E0DFF801C083C091000181
:10162000D091010148E050E06BE172E0CE010E94F0
:101630000123892B59F088E0FE01ABE1B2E0019073
:101640000D928A95E1F7CE010E944318DF91CF9168
:101650001F910F910895C9CF08950895FECF089561
:101660009091A10292FF0EC0982F990F990F990F98
:10167000962B90932302B4DB809123028695869566
:101680008695ECCFADCB1092230280E0E7CF90910E
:1016900023028095892380932302282F277059F4F1
:1016A000891749F09091A10292FF05C08695869511
:1016B0008695A4DBE8CF08959091A10292FB2227A2
:1016C00020F9281749F080FB92F99093A10280EA53
:1016D00092E043D082E0DBCF08958091A102002404
:1016E00082FF0394802DE8CF81E0E6CF80E0E4CF55
:1016F00080E090E0BC01E3C380E090E0BC01D9D37E
:10170000F7CFA3E0B0E0E7E8FBE00C94C6228AD371
:1017100095D31B82CE010396A8D381E090E08093FD
:10172000D8011092D901ADD3198284E18A83CE0108
:101730000196B8D3E1DF2396E2E00C94E222E1CFF8
:10174000089582C308956FC3089584C3089593C311
:10175000089597C308959AC30895A4C30895B5C37F
:101760000895A6E0B0E0E7EBFBE00C94C4220E94F1
:10177000691A8C0180913002909131028017910793
:1017800079F019821A820E94691ABC0149815A8132
:1017900080E090E00E942603009330021093310213
:1017A0002696E4E00C94E022D9D26093360270933E
:1017B000370280933802909339026093320270931B
:1017C000330280933402909335020895089508956A
:1017D000FDCF08950895FEDFFBCF0895FECF089555
:1017E0000895FEDFFBCF81E008958AEC9EE0F7D6F6
:1017F000EEDFF1CF0BC50895089508950895FCDF3D
:10180000FCDFFCCFA0DF811101C099DF8AE392E009
:101810009CDF80EA92E09FDF9ADFB2DA8091D60106
:101820009091D701C6CA0E94601A6FD2F4D448D4EE
:10183000E9DF0E942A180E940603FBD7F9D4D1CF12
:10184000E5D481110C942B180895A6E0B0E0EBE2EA
:10185000FCE00C94BD22C7DF81110AC082DFF0DFFB
:101860000E94A7160E940E032696EBE00C94D92244
:1018700044D484E9A82E82E0B82E750110E0F70167
:101880000081812F2DD31F5F1C3009F445C09FEFCD
:10189000E91AF90A081799F380913A0281FD26D3D3
:1018A000A9DF982E10E0812F1BD3F82EF50181912E
:1018B0005F01F81661F18F25D82E00E0EE24E39445
:1018C0008D2D8E21F1F0CC24C3948F2D8E2109F41F
:1018D000C12C911489F0602F812F0E94C4198111AD
:1018E0000BC009831A830E94691ABC0149815A817D
:1018F00081E09C2D0E9426034C2D602F812F0E9499
:10190000D8190F5FEE0C0630D9F6F501F2921F5F81
:101910001C3049F649DFA3CF0813BECF9FCF0F93EA
:101920001F93CF93DF93FDD0EC01D23508F050C068
:10193000D03508F0C8C0C03ED10530F5CD3CD1054A
:1019400008F09DC0C83AD10578F4C53AD10508F031
:1019500093C0C130D105B1F1CE010497813A910510
:1019600088F1C0E0D0E02EC0CE01885A91094B9793
:10197000C0F7C85AD0E0CC0FDD1FCB59DE4F09901D
:10198000D881C02DD4641EC0D034A8F4D03208F061
:10199000ADC0C83ED105B0F0CE0191509F3108F7DF
:1019A0008D2F62D1082F8C2F90E0BBD0D02FDF710C
:1019B000C82FD92B07C08C2F90E0B3D0DF70C82F71
:1019C000D92BD06ACE01DF91CF911F910F9108954D
:1019D000C03882E5D807B8F5C03682E5D80708F0E8
:1019E00056C0C03482E5D807C8F4C03282E5D807B3
:1019F00008F047C08C2F8695869520E2829FC00113
:101A00001124C37021E030E002C0220F331FCA95B9
:101A1000E2F7E901C82BD92BDD68D4CF8C2F86954E
:101A20008695877020E2829FC0011124C37021E057
:101A300030E002C0220F331FCA95E2F7E901C82B3C
:101A4000D92BDC68BFCFC03C82E5D80750F48C2F7F
:101A50008F71C03AD24580F5982F84EF906AEC01DF
:101A6000B1CFCE01805C9245809708F07ACFDC2F11
:101A7000DF71C0EFD06AA6CFA497D064A3CFD065A2
:101A8000A1CF8C2F8F71D82FC1EFD06A9BCF8C2F15
:101A900086958695877020E2829FC0011124C370CD
:101AA00021E030E002C0220F331FCA95E2F7E901BE
:101AB000C82BD92BDA6886CFD7D0982F80E09F71BA
:101AC000EC01D0627FCF8C2F8F71CED053E0CC0F42
:101AD000DD1F5A95E1F7DF70282F84FF04C090E1E5
:101AE000899F90011124C22FD0696CCF8D2F8F71E7
:101AF000BBD0082F8C2F90E014D0302F3F71282FAF
:101B0000392B3062E9015ECF462F7C3028F46630F5
:101B100018F4672F0C94110280E090E00895F4DF30
:101B2000FECE803E9105D1F1C8F48133910509F4D0
:101B300081C048F48932910509F471C08A32910557
:101B400009F47FC0089589339105E1F08238910549
:101B5000C9F08533910509F45DC00895843E91056F
:101B6000D1F148F4823E910531F1833E910541F176
:101B700081EE90E00895863E9105C1F1873E910582
:101B8000F1F108952091A002237009F064C0209122
:101B9000A10223FF14C089E290E008952091A002E1
:101BA00020FD45C03091A10230FF09C024FD24C0B2
:101BB00083EE90E008952091A00222FDF7CF0895D2
:101BC0002091A00222FD44C03091A10230FD43C00B
:101BD00024FFF5CF11C02091A10221FFF0CF809109
:101BE000A00284FD09C087EE90E008952091A00234
:101BF00023FFE5CF24FFF7CF80E090E00895209108
:101C0000A00223FD2BC03091A10231FFE1CF84EE71
:101C100090E008952091A00225FFD1CFBCCF209164
:101C2000A00225FD1EC02091A10223FFC8CF89E399
:101C300090E008952091A00226FFC1CF8AE290E0B3
:101C400008952091A00226FFBACF81E390E0089585
:101C500082EE90E0089580EE90E0089586EE90E0A8
:101C6000089585E390E008959091A00292FF10C03E
:101C700041E0282F2471243009F040E031E0282F82
:101C80002871283009F030E0431711F02CE082274A
:101C900093FF10C041E0282F2471243109F040E067
:101CA00031E0282F2871283109F030E0431711F076
:101CB0002CE082273091A10230FF10C051E0282F84
:101CC0002171213009F050E041E0282F287128309F
:101CD00009F040E0541711F029E0822731FF10C0CD
:101CE00041E0282F2171213109F040E031E0282F17
:101CF0002871283109F030E0431711F029E08227DC
:101D000094FF02C083FD877E08951092A202109274
:101D1000A3021092A4021092A5020895EF92FF92DE
:101D20000F931F937B018C0171D2811112C00E940D
:101D3000751A9701A801261B370B480B590BC901CF
:101D4000DA018093A2029093A302A093A402B0931D
:101D5000A5021F910F91FF90EF90089557D2811522
:101D600041F00E94751A462F572FBC01CB01BA01D2
:101D700008950E94751ADC01CB014091A202509196
:101D8000A3026091A4027091A502480F591F6A1F17
:101D90007B1FECCF80E00895CF939C01205E3245FD
:101DA000C1E02032310538F4FB01C581C11103C007
:101DB0008F710E94BE028C2FCF9108959C01FB0170
:101DC0008581811599F02B359CE7390769F02C3511
:101DD0009CE7390721F02A353C4721F008957DDC46
:101DE00080E0089581DCFCCF81DCFACF81E00895AA
:101DF0009C01FB018581811599F021309CE7390711
:101E000061F023309CE7390739F021153C4749F44C
:101E10000E94E60280E0089594DC0E94EA02FACF74
:101E200081E00895089580E090E00E941F239C01C6
:101E300081E0233E3E4F09F080E0089563EE7EEF9F
:101E400080E090E00C943E236FEF7FEF80E090E025
:101E50000C943E23CF93DF93EC0182E090E00E944C
:101E600017238883DF91CF910895FC01608182E080
:101E700090E00C94242383E090E00E94172390E0EC
:101E80000895682F83E090E00C942423CF93DF9390
:101E9000EC0184E090E00E941F2388839983DF9106
:101EA000CF910895FC016081718184E090E00C94F1
:101EB0003E23AB01BC018FE090E00C943623AB01D4
:101EC000BC0183E190E00C943623682F8EE090E013
:101ED0000C9424230895FECF08950895FECF08950D
:101EE000E82FF0E0ED54FD4F80810895089580EAD9
:101EF0008A95F1F7089500C00895F9CF08950895DF
:101F0000FECF0895A6E0B0E0E8E8FFE00C94C1221F
:101F10007DD1F82E8091BF0290E08D549D4FF11439
:101F2000E1F18E010F5F1F4FF80126E011922A9513
:101F3000E9F7B80189D1E02ED12E8115B1F0809159
:101F4000A60290E046E050E0B8018D549D4F0E94FB
:101F5000012321E020933B02892B91F4F12CBEDF79
:101F60008F2D2696E7E00C94DD2280913B028115AF
:101F7000A9F3F80186E011928A95E9F710923B02E5
:101F8000A091A602B0E0AD54BD4F86E0EE2DFD2D30
:101F900001900D928A95E1F7E2CF2091A60230E000
:101FA000BC01C9018D549D4FDAD1AADFD9CFF89475
:101FB000E82FE295EF70F0E041A18F7021E001C0C1
:101FC000220F8A95EAF7922F9095942391A392A1DC
:101FD000822F892B82A378940895CF93DF93C1EA4F
:101FE000D1E089918F3F09F0E2DF81E0C73AD8075D
:101FF000C1F7CBE9D1E089918F3F09F0D8DF81E0CB
:10200000C13AD807C1F7DF91CF910895A0E0B0E0C1
:10201000ECE0F0E10C94C0226C01E62EC62FD0E07B
:102020008E010F551E4FF80180818F3F09F441C08A
:10203000F894E82FE295EF70F0E091A18F7021E025
:1020400001C0220F8A95EAF7892F822B81A382A1F2
:102050002095282322A378944EDFABE9B1E031E04C
:10206000F12C2D912F3F79F0E22FE295EF70E05E99
:10207000F0E0808190E02F7002C0959587952A95B9
:10208000E2F780FF1BC080E0F82A330F81E0A13A1D
:10209000B80739F7F80180818F3F09F088DF61E0E8
:1020A000F11001C060E08E2D28DFF601EC0FFD1F5E
:1020B000F082CDB7DEB7E8E00C94DC22832FE4CFCA
:1020C000809102018091020190E0811101C096E0AF
:1020D0009093BF0286E0891B8093A6027EDFE3EB2C
:1020E000F2E08CE011928A95E9F7E7EAF2E08CE001
:1020F00011928A95E9F741D0EECEACE0B0E0E3E88A
:10210000F0E10C94C322FE013196DF018CE01D92B8
:102110008A95E9F710E00E2FFF2E612F802F9F2D5B
:1021200075DF812F8F5F182F8630B9F74CE050E0B4
:10213000602F7F2D87EA92E00E94012341E0892BE6
:1021400091F440E06091BF0270E06D547D4F87EAEA
:1021500092E014D0182FD6DE912F982B892F2C9631
:10216000E5E00C94DF228CE0E02FFF2DA7EAB2E03F
:1021700001900D928A95E1F7E5CF0895EF92FF92D5
:102180000F931F93CF93DF938C017B01C42F4115D5
:1021900079F081E080933E020E94691A80933C02AC
:1021A00090933D0280E0CDB7DEB7E6E00C94DE22EE
:1021B000D0913E02D115B1F380913C0290913D0245
:1021C0000E94E819059770F346E050E0B801C70196
:1021D0000E940123892B41F086E0F801D70101908C
:1021E0000D928A95E1F7CD2F10923E028C2FDBCF16
:1021F000CF930E949022C82F811102C00E948C228E
:102200008C2FCF91089580914202089580914102D0
:102210000895FCCF0895ECDF80934102FADF8093AC
:102220004202F1DF80930201F1DF811140C0089585
:10223000EDDF811101C03EC0089581E0909143021D
:102240009A3008F080E008950F931F93CF93DF93A7
:10225000EC018B01809143028A3080F4B801CE01F9
:102260007CD0811121C0809143028F3FB1F40E9444
:10227000691A80933F029093400209C080913F0207
:10228000909140020E94E819843F914038F780E025
:10229000DF91CF911F910F9108958F5F809343023B
:1022A0008A3028F781E0F4CF10924302FBCF0C94E0
:1022B000141B08950C94171B0895CF92DF92FF9280
:1022C0000F931F93CF93DF936901E801082F880FC5
:1022D000110B41155105B1F0F80133E0EE0FFF1F6E
:1022E0003A95E1F7ED5FFE4F818192818C5B9D4FC6
:1022F000E0812E2F30E04E17510508F49A01A90114
:102300000E940E23C8010E94F51BF82E8115E1F0F2
:102310002097D1F0C80123E0880F991F2A95E1F793
:10232000FC01ED5FFE4F2381422F50E0C217D10523
:1023300008F4AE018D5F9E4FFC01648175816C5B7A
:102340007D4FC6010E940E238F2DDF91CF911F91EB
:102350000F91FF90DF90CF900895E8C00895FBC0E3
:102360000895A4E0B0E0E7EBF1E10C94C4226091A1
:102370005D0270915E0280915F02909160020E9406
:10238000F11911E0643671058105910508F1E6DC6B
:10239000DC01CB010296A11DB11D89839A83AB8319
:1023A000BC8300E010E0980144E050E0BE016F5FA4
:1023B0007F4F82E082DF182F811551F00E94751A3D
:1023C00060935D0270935E0280935F02909360025F
:1023D000812F2496E4E00C94E022A7E0B0E0E3EF44
:1023E000F1E10C94BE225B01E090A701F090A801FE
:1023F00001E010E0CE0107969C0140E050E0BA01F8
:1024000080E05BDF182F811509F444C067018FEF6E
:10241000C81AD80A6091590270915A0280915B02E1
:1024200090915C02DED7643671058105910558F103
:1024300006E010E0CE0101969C0140E050E0BA01B8
:1024400081E03BDF182F66E070E0C601F3D19F8189
:1024500098132DC0111559F10E94751A60935902F5
:1024600070935A0280935B0290935C0286E09E0117
:102470002F5F3F4FF901A3E5B2E001900D928A95DD
:10248000E1F781E015C066E070E0C601D3D19F811D
:102490008913CECF86E0F70131969E012F5F3F4F23
:1024A000D90101900D928A95E1F71111DFCF80E0FB
:1024B00096E0E3E5F2E0D50101900D929A95E1F7FF
:1024C0002796EAE00C94DA22A0E0B0E0EAE6F2E136
:1024D0000C94BE227C016B015A01AFDE0AE010E0D1
:1024E000811102C001E010E0C1E0D0E0B601C701F7
:1024F000F5010995811115C021960C171D078CF067
:10250000CC9F9001CD9F300D300D112480E090E0E4
:1025100045E34A95F1F70000019682179307C1F74A
:10252000E5CFCDB7DEB7EAE00C94DA220F931F9324
:10253000CF93DF93EC018B014DEE51E1C5DF8115A7
:1025400029F041EB51E1B801CE01BEDFDF91CF911F
:102550001F910F910895CF93DF93C091A701D09160
:10256000A801CE01019626E0FB01DC0101900D924D
:102570002A95E1F766E070E05DD188838F819885C8
:10258000A985BA8540914F02509150026091510245
:102590007091520284179507A607B70759F08093E8
:1025A0004F0290935002A0935102B0935202BC018B
:1025B000CD01B4DBDF91CF91089547C9089523D7AA
:1025C0000E94851D12D90E949D1D2DD90E94A61D15
:1025D0000E94A91DF2DF0E94BF1D11D9F9CF80937F
:1025E000AA019093AB0108958B3258F4853098F08E
:1025F000E82FE550E63278F4F0E0E05AFC4D0C9418
:10260000B022833450F48A3308F051C0853331F05E
:1026100091E0883361F090E00AC0E9F781E090E052
:102620000E94C0060E946F0601C089D891E0892FE0
:10263000089580913A02807F80933A0281E08093EE
:102640006402F4CF0E94E602F1CF90913A02892F02
:102650008E7F90FF816080933A0280FDE7CF817F7B
:1026600080933A02E3CF90913A02892F8D7F91FFB8
:10267000826080933A0281FFD9CF80913A028160D3
:10268000EFCF90913A02892F8B7F92FF84608093E5
:102690003A0282FDF2CFCACF90913A02892F877F0A
:1026A00093FF886080933A0283FDE7CFBFCF8953C1
:1026B00021E030E002C0220F331F8A95E2F7C90102
:1026C000AFCF8D51F5CF80E0089580E00895CF938E
:1026D000C82F80916402813089F0823081F18111AC
:1026E000A4C00E94A00A823209F0A1C08C2FEBDFA7
:1026F000811102C08C2F78DFCF9108950E94A00A2B
:102700008232A1F38C2FE1DF811519F081E0817015
:10271000F3CFC43169F030F4CB30C1F3C03159F09C
:1027200080E0F5CFC93221F081E0C833C9F7EFCF9F
:1027300010926402F5CF82E080936402E7CFCF3439
:1027400009F469C068F4C83248F4CE3178F5C7306E
:1027500009F450C0C431F9F081E0CECFC932FBCFCB
:10276000C13509F45AC0C23509F459C086EFC035E5
:1027700099F7E0916102F0916202309769F320814C
:10278000982F990F990B820F911D91300CF449C02D
:102790008FEF8083E1CF809163028115E9F210927F
:1027A00063021092610210926202D6CFCD51C093A3
:1027B0006302C430C9F078F480E291E0C23031F0B5
:1027C00087E692E0C33011F48FE191E080936102DB
:1027D00090936202C1CFC53051F08BE191E0C630D9
:1027E000A9F310926302B8CF8EE191E0EFCF8CE1B4
:1027F00091E0ECCF1092670284E180932001C093B6
:102800001F018CE380931E0188E080931C0188E205
:1028100080931B01A1CF8AE0ACCF8FEFAACF81E0DC
:10282000A8CF97FFB6CF108297CF1092640280E0B6
:1028300063CF0895FC01680F791F8FEF41E3E6171E
:10284000F70709F408959191892728E030E0982F3F
:10285000990F87FF06C0892F842721503040B9F790
:10286000EECF892FFACFCF93DF93EB0186319C47D0
:1028700009F50E94A00A9D81911599F08A7A91E04C
:10288000811101C090E090936502811541F085E3CC
:10289000B7D40E942B0B80E0DF91CF91089589E29D
:1028A000F7CF80916502811519F085E3AFD4F1CFA0
:1028B00089E2FCCF81E0F0CFCF93DF93EC01FB0105
:1028C0008581811509F4CBC09E0130572332310533
:1028D00008F0ABC080EA92E00E94AB0BFE01E15031
:1028E000F047E232F10520F4EA57FC4D0C94B02297
:1028F0008091A00281608093A00290C08091A1028B
:1029000088608093A1028AC08091A0028260F3CF88
:102910008091A0028460EFCF8091A0028860EBCF0D
:102920008091A1028160EDCF8091A1028260E9CF08
:102930008091A0028061DFCF8091A0028062DBCF16
:102940008091A0028064D7CF0E946F068091A00280
:102950008068D1CF8091A0028C60CDCF8091A10200
:102960008360CFCF8091A0028E7FC5CF8091A102DE
:10297000877FC7CF8091A0028D7FBDCF8091A002BD
:102980008B7FB9CF8091A002877FB5CF8091A102C4
:102990008E7FB7CF8091A1028D7FB3CF8091A002AF
:1029A0008F7EA9CF8091A0028F7DA5CF8091A002BC
:1029B0008F7BA1CF0E946F068091A0028F779BCF63
:1029C0008091A002837F97CF8091A1028C7F99CFC5
:1029D0009091A002892F8B7F92FF8460877F92FF66
:1029E000886089CF8091A102982F909590FB80F903
:1029F00090FB81F986CF9091A002892F8F7B96FF63
:102A0000806479CF0E946F069091A002892F97FB76
:102A100087F9805870CF81E00E94AF0B80EA92E086
:102A20000E94AD0B0E946F0680E0DF91CF91089568
:102A300080E0F2CF9091A002892F8F7E94FF806179
:102A40005ACF9091A002892F8E7F90FF816053CF43
:102A50009091A102892F877F93FF886052CF81E0F8
:102A6000E4CF382F25EB3203C001112497FF04C0B7
:102A700080589109892F089580589F4FFBCF8091EE
:102A80006E0280FF0DC060911F0170E0660F771F1E
:102A90006038710588F56115710581F1862F0895FB
:102AA00081FF07C060911F0184E0689FB00111247D
:102AB000EFCF82FF04C060911F0188E0F6CF9091B4
:102AC0006D029115B9F060911E0180911F0196175A
:102AD00028F098E0899FB0011124DACF899FC001C6
:102AE000112423E0880F991F2A95E1F770E00E94D6
:102AF0009D22CECF68E0D2CF8FE7089581E0089580
:102B000080916E0280FF0CC060911C0170E0759591
:102B10006795759567956115710541F1862F089543
:102B200081FF06C060911C0170E075956795F3CF39
:102B300060911C0182FD0BC090916C029115A1F077
:102B400060911B0180911C01961738F0682F70E08E
:102B50006038710500F38FE70895899FC001112443
:102B600070E00E949D22F4CF61E0D8CF81E008950B
:102B7000E82FED5CE33198F5F0E0E855FC4D0C945E
:102B8000B0227DDF819580937202089578DFFBCFBC
:102B900076DF819580937102089571DFFBCFB0DFFE
:102BA000809373020895ACDF8195FACFA9DF8195F8
:102BB000809374020895A4DFFBCF815D990B21E01F
:102BC00001C0220F8A95EAF780917002822B8093D0
:102BD0007002089580916E02816080936E02089564
:102BE00080916E028260F9CF80916E028460F5CF91
:102BF000409171028D3C59F48091720287FF0DC0A3
:102C000010927202411559F410926D0208C08E3C68
:102C100081F48091720218169CF3411581F0809125
:102C2000730290917402892B09F056C010926C02C5
:102C300008958F3C41F447FFF0CF109271028091CC
:102C400072028115E0CF803D19F41416B4F3E5CF7C
:102C500090917302893D29F41916FCF610927302C3
:102C6000DCCF8A3D19F497FFD8CFF8CF909174024A
:102C70008B3D29F497FFD1CF10927402CECF8C3DBB
:102C800019F41916CCF3C9CF982F915D983078F4C8
:102C9000815D990B21E001C0220F8A95EAF7822F0E
:102CA000809590917002892380937002B6CF8D3DFC
:102CB00031F480916E028E7F80936E02AECF8E3D96
:102CC00021F480916E028D7FF7CF8F3D09F0A5CF63
:102CD00080916E028B7FF0CF0895FBD39C01909181
:102CE000710280917202982B21F020936A02309336
:102CF0006B029091730280917402982B21F02093C3
:102D00006802309369028FE692E0CAC1EFE6F2E012
:102D100086E011928A95E9F710926D0210926C028A
:102D200010926E020895FC01828181110EC0838190
:102D300081110BC08481811108C091E085818111CE
:102D400001C090E0892F8170089581E0FCCFA6E05A
:102D5000B0E0EDEAF6E10C94C32286E0EFE6F2E0A3
:102D60009E012F5F3F4FD90101900D928A95E1F7A7
:102D700010927102109272021092730210927402F9
:102D80008B819C81892B022FF32E811581F08091FC
:102D90006A0290916B021CD3AC0190916D02911567
:102DA000A1F1809120018417150608F43BC08D81A4
:102DB0009E81892B89F0809168029091690208D3E5
:102DC000AC0190916C02911509F45AC080911D01DB
:102DD0008417150608F462C0602F7F2D8FE692E0FD
:102DE00025D2811104C08FE692E09DDF811175DF4D
:102DF00086E0E02FFF2DAFE6B2E001900D928A95BC
:102E0000E1F72696E5E00C94DF22209167028AE044
:102E1000289F900111242417350748F69F5F90934F
:102E20006D0202C09F3FD1F71B81111551F027DEC3
:102E300091E011160CF09FEF899F802D1124809353
:102E400071021C81111551F01ADE91E011160CF07F
:102E50009FEF899F802D11248093720280917102CF
:102E6000811509F4A4CF10917202111509F49FCFB6
:102E7000F8DD80937102812FF4DD8093720297CF89
:102E8000209166028AE0289F9001112424173507BB
:102E900008F0A2CF9F5F90936C0202C09F3FD1F7D2
:102EA0001D81111551F02CDE91E011160CF09FEFF1
:102EB000899F802D1124809373028E81182F811594
:102EC00051F01EDE91E011160CF09FEF899F802DCE
:102ED00011248093740280917302811509F47CCFD0
:102EE00090917402192F911509F476CFBADD809371
:102EF0007302812FB6DD809374026ECF0F931F9300
:102F0000CF93DF93C42FD22FFC0185818115C9F0A7
:102F100040937702DED280937502909376028C2FD5
:102F2000805E883048F481E0C1FD84E0C0FD880FF8
:102F3000C2FD82950E945F04DF91CF911F910F9196
:102F4000089510917702141333C080917502909107
:102F500076023ED2883C910558F5CD2FC05E1D17F4
:102F6000C1F0812F805E883048F481E011FD84E05B
:102F700010FD880F12FD82950E946404C83048F449
:102F800081E0D1FD84E0D0FD880FD2FD82950E94C2
:102F90005F04802F0E94580481E0D1FD84E0D0FDC1
:102FA000880FD2FD8295C83038F60E946404C4CFE1
:102FB0008C2F805E883008F0BFCF81E0C1FD84E0B7
:102FC000C0FD880FC2FD8295F0CF0F93FC01CB01AD
:102FD000E851FC47E730F10588F5E554FC4D0C94C9
:102FE000B02206E221EE41EE6AE17CE787DF80E075
:102FF0000F91089507E225EE45EE6BE17CE7F6CFF1
:1030000006E221EE40EE68E17CE7F0CF07E225EE34
:1030100044EE69E17CE7EACF06E221EE42EE6CE1A4
:103020007CE7E4CF07E225EE46EE6DE17CE7DECFFC
:1030300008E221E045EE6EE17CE7D8CFFB01858117
:1030400081111092770281E0D3CF80937D0290931B
:103050007E02089508950895D9D8811103C0809102
:1030600078020895E0917D02F0917E02309739F068
:103070000190F081E02D309711F00995089580E0DE
:103080000895EACF0895E0917D02F0917E02309795
:1030900031F00280F381E02D309709F00995089511
:1030A000E0917D02F0917E02309759F026813781C0
:1030B000232B39F022E0DC012C930680F781E02DF0
:1030C00009950895A3E0B0E0E8E6F8E10C94C62283
:1030D00020917B0230917C0228173907B1F0809350
:1030E0007B0290937C02E0917D02F0917E0230970A
:1030F00061F00084F185E02D309739F023E02983D9
:103100008A839B83CE01019609952396E2E00C9475
:10311000E222A3E0B0E0EFE8F8E10C94C6222091AF
:10312000790230917A0228173907B1F08093790239
:1031300090937A02E0917D02F0917E02309761F0E7
:103140000084F185E02D309739F024E029838A83CB
:103150009B83CE01019609952396E2E00C94E2222E
:1031600040910001509101019A012E5F3F4F485F4D
:103170005F4F80E0F90190812F5F3F4F91118F5F8A
:1031800042175307B9F70895811591F02091000176
:1031900030910101F9013296285F3F4F90819817D5
:1031A00031F03196E217F307C9F780E0089581E026
:1031B00008959C01FC01329680E09FEF4081461704
:1031C00059F031969F3F19F4411101C0982F8F5F3C
:1031D0008630A1F79F3F09F40895290F311D97FD0F
:1031E0003A95F90162830895FC013296089621917F
:1031F000261302C0DF011E92E817F907C1F70895F0
:10320000682F8091000190910101D3CF682F8091A8
:10321000000190910101E8CFE0910001F0910101DE
:10322000329686E011928A95E9F70895DC01FB0158
:1032300011969C9111978181981322C012968C91BE
:103240001297811519F0928189131AC013968C91E7
:103250001397811519F09381891312C015968C91DB
:103260001597811519F0958189130AC014969C91C0
:10327000911521F081E02481291303C080E001C071
:1032800081E0817008950895FECF08958F5F809347
:10329000240160912101709122018091230190917C
:1032A0002401F2CF83E08093240160912101709189
:1032B00022018091230190912401E6CFE7CF089568
:1032C00081E080932401609121017091220180911D
:1032D000230190912401D8CFF3CF089591E081117B
:1032E00001C090E09093230160912101709122012F
:1032F0008091230190912401C7CF809123010895EB
:10330000809322016091210170912201809123011B
:1033100090912401B9CF80912201089580932101D9
:1033200060912101709122018091230190912401EB
:10333000ABCF80912101089508950895FECF08959F
:1033400008950895F9CF08950F931F93CF93DF93B6
:10335000F7DF0E947D10F5DF0FE712E0C0E0D0E05C
:103360008C2F0E94700FF80181938F0191E08111E1
:1033700001C090E0D92BCF5FCC3091F78D2FDF913A
:10338000CF911F910F910895E82FF0E0E158FD4F84
:10339000808190E021E030E002C0220F331F6A9567
:1033A000E2F72823392381E0232B09F480E00895F4
:1033B00041110DC0E82FF0E0E158FD4F21E001C0C0
:1033C000220F6A95EAF720958081282320830895AB
:1033D000CF93DF93EC017DD08C1B9D0BDF91CF91C0
:1033E0000895EF92FF920F931F937B018C017DD084
:1033F0009701A801621B730B840B950B1F910F9112
:10340000FF90EF90089585B7806885BF85B7806885
:1034100085BF08951F921FB61F9211248F939F930B
:10342000AF93BF9380918B02811113C08091C00232
:103430009091C102A091C202B091C3024196A11D18
:10344000B11D8093C0029093C102A093C202B093B9
:10345000C302BF91AF919F918F911F901FBE1F908C
:1034600018958091C802843031F10E94EE021092CA
:103470008B0288E190E020E40FB6F894A895809341
:1034800060000FBE2093600083B7817F846083BF9C
:1034900083B7816083BF7894889583B78E7F83BF1D
:1034A0000FB6F894A89580916000886180936000C1
:1034B000109260000FBE08950E946F060C94F202F5
:1034C00082E084BD93E095BD9AEF97BD80936E0036
:1034D00008952FB7F8948091C0029091C102A091F5
:1034E000C202B091C3022FBF08952FB7F894609124
:1034F000C0027091C1028091C2029091C3022FBF9D
:10350000089578941F921FB61F9211248F939F9352
:10351000AF93BF938091C0029091C102A091C2026B
:10352000B091C3020196A11DB11D8093C00290937A
:10353000C102A093C202B093C302BF91AF919F9109
:103540008F911F901FBE1F90189587E797E7809374
:1035500000089093010888E19AE00FB6F894A895C6
:10356000809360000FBE90936000FFCF88E19AE0E7
:103570000FB6F894A895809360000FBE90936000FA
:10358000FFCF8EE1489B02C08150E1F7489BFECF00
:103590000895589880E28A95F1F7589A0895FC01A9
:1035A0008BE08A95F1F798E020E080E031E040E19F
:1035B0004A95F1F7880F489B02C08160232742E0BB
:1035C0004A95F1F7000040E14A95F1F7915079F7FB
:1035D00090E19A95F1F799B132E03A95F1F7000050
:1035E00030E13A95F1F7917092272081920F908304
:1035F0000895A1E0B0E0EEEFFAE1C4C719828C01B2
:103600007C01E60EF11CBDDFCE010196C8DFF8019A
:1036100081938F01EE15FF05B1F781E0998191113A
:1036200080E02196E6E0CAC7509A589A08955098CB
:10363000589AE89AE9E6F0E080818C7F80830895CB
:103640006150770B91E001C0990F6A95EAF7692FF5
:1036500090E021E0611108C0911591F0589A80E244
:103660008A95F1F758980895362F382339F0589AEB
:10367000922730E23A95F1F76695ECCF5898F9CF5A
:103680005898EDCFFF920F931F93CF93DF93EC01E8
:103690008C01060F111D8991F82E7BDF68E08F2DBC
:1036A000CFDFC017D107B9F7CDB7DEB7E5E087C7E1
:1036B0001F920F920FB60F9211240F931F932F9307
:1036C0003F934F935F936F937F938F939F93AF93AA
:1036D000BF93EF93FF93CF93DF930F92CDB7DEB7F6
:1036E00019824FDFCE0101965ADF082F0695069505
:1036F0000695282F22952570902F9570920F292FCF
:10370000237096959695920F982797708981892BAB
:1037100009F055C0043008F052C080E18A95F1F7F5
:10372000589A509A82E08A95F1F700C0589888E03C
:10373000089F80011124D801AD5FBE4F1696ED9110
:10374000FD911897309791F06091A7017091A801B1
:1037500014962D913D91260F371F15978D919D91B0
:10376000680F791F4C9113978C910995F801ED5FC3
:10377000FE4F6381611549F02091A7013091A801A6
:1037800084819581820F931F7DDF03DF80E18A951D
:10379000F1F758985098589A80E18A95F1F7F80116
:1037A000ED5FFE4F6081611549F02091A7013091D6
:1037B000A80181819281820F931F1BDFE2DE0F90AF
:1037C000DF91CF91FF91EF91BF91AF919F918F9139
:1037D0007F916F915F914F913F912F911F910F9129
:1037E0000F900FBE0F901F9018950F931F93CF93BC
:1037F000DF93EC0104970CF05EC0F894509A58984F
:1038000085E08A95F1F700009C2F969595708C2F96
:103810008570980F892F837096959695292F93E040
:10382000CC0FDD1F9A95E1F7280F822F8C2B082FE4
:10383000B0DE00C068E0802F03DF80E18A95F1F7F9
:103840005098589A489B30C087E090E048992EC025
:10385000FE01ED5FFE4F6381611559F02091A701D4
:103860003091A80184819581820F931FC2DE81155A
:10387000F9F087DE80E28A95F1F75898509A80E156
:103880008A95F1F7CD5FDE4F6881611549F020918F
:10389000A7013091A80189819A81820F931FF2DEDE
:1038A00078DE789481E008C000C0CCCF019749F45D
:1038B000509A589A789480E0DF91CF911F910F91A0
:1038C000089500C0C3CF08959B01BA019091C8022A
:1038D0009430D9F48F708093E9009FEF8091E800D5
:1038E00085FD06C085ED8A95F1F700009150B1F78E
:1038F0008091E80085FF09C040E050E0C901B1D1E6
:103900008091E8008E778093E800089543E050E0CE
:10391000BC0182E0D9CF46E050E0BC0182E0D4CFC8
:10392000CF93DF93EC01E9DC48E050E0BE0181E099
:10393000CBDF88E0FE01ACE8B2E001900D928A9501
:10394000E1F7DF91CF9108958091C702811107C0FF
:1039500016D366D38091E20084608093E2000895DC
:103960001092C7020895ACDC81E0B8CC6091C4022B
:1039700081E0611101C080E095CC9091C80281E0A6
:10398000943009F080E06091C40298CC42E061EC90
:1039900081E071D242E261EC82E06DD29091C80286
:1039A00081E0943009F080E06091C4026FCC809196
:1039B000CA02893081F148F4823009F496C083301C
:1039C00009F457C0813041F008958A3009F480C06D
:1039D0008B3009F468C008958091C902813A09F0DA
:1039E00047C08091E800877F8093E8008091CD02F6
:1039F0009091CE02892B59F060E080E090E070E079
:103A00007DD18091E8008B778093E800089568E08D
:103A10008CE892E0F4CF8091C902813249F580911F
:103A2000CD029091CE02029718F58091E800877F31
:103A30008093E8008091E80082FF16C02091F30097
:103A40008091F200922F029731F48091F100813041
:103A500011F0863019F48091F10052DC8091E80079
:103A60008B778093E8003BC28091C8028111E2CF3E
:103A700008958091C902813AD9F78091CD02909141
:103A8000CE02892BA9F78091E800877F8093E80018
:103A90008091E80080FFFCCF30DC8093F1008091C2
:103AA000E8008E77DECF8091C902813209F78091DC
:103AB000CD029091CE02892BD9F68091E800877FC4
:103AC0008093E8000CD28091CB0208DC0C946F0646
:103AD0008091C902813261F68091E800877F8093EE
:103AE000E800FDD18091CC0219CC8091C902813AC5
:103AF00009F0BECF8091E800877F8093E800809135
:103B0000E80080FFFCCF15DCC8CF84B7877F84BF77
:103B10000FB6F894A895809160008861809360004A
:103B2000109260000FBE80E890E00FB6F89480938A
:103B30006100909361000FBECFCB21D271D2E2EE33
:103B4000F0E08081846080837894CDC485E291E048
:103B50007CCA8091C802853029F48091C8028530E2
:103B600011F0AACC08957DDCEFDB8115B1F38091D3
:103B7000C602811591F35FD00E946F06EECF0895C3
:103B80009A014091CF025091D00200C0492F50E0DD
:103B900043305105C9F070F441305105E9F142302C
:103BA000510571F48BE390E04EE952E0F901408356
:103BB0005183089541325105E9F04232510519F11E
:103BC00080E090E040E0F2CF482F50E0813061F09B
:103BD0004230510561F0EAE9F2E04115510581F703
:103BE000849190E0AF01E2CFEAE8F2E0F9CFECE5B2
:103BF000F2E0F6CF61307105A0F011F789E090E0B6
:103C000049EC52E0D3CF6130710580F0C9F68BE703
:103C100090E04BEE52E0CACF82E190E049ED52E0F5
:103C2000C5CF89E090E040EB52E0C0CF84E490E063
:103C300046E653E0BBCF80E189BD82E189BD09B48E
:103C400000FEFDCF8091D8008F7D8093D8008091B9
:103C5000E00082608093E0008091E00081FDFCCF75
:103C60000895AF92BF92CF92DF92FF920F931F936E
:103C7000CF93DF936C01EB018A0150D1F82E8111B3
:103C800023C00115110539F0F80180819181C81B0D
:103C9000D90BC80ED91EA12CB12C2097A9F0809168
:103CA000E80085FD21C08091E8008E778093E800D0
:103CB00001151105A1F0F801808191818A0D9B1DEC
:103CC0008083918385E0F82E8F2DDF91CF911F9116
:103CD0000F91FF90DF90CF90BF90AF9008951ED1CD
:103CE0008115E9F2F82EF0CFF60181916F018093F2
:103CF000F10021978FEFA81AB80ACFCFFC012091CD
:103D0000CF023091D0022617370720F061157105D8
:103D100069F09B0190E02115310571F491110CC0FF
:103D20008091E80082FF38C080E008959091E8001B
:103D30009E779093E800EDCF8091C8028115C1F184
:103D40008530C1F18091E80083FD30C08091E800AA
:103D500082FDE6CF8091E80080FFDDCF8091F30007
:103D60004091F200582F2115310519F048305105C6
:103D700058F091E04830510509F090E04091E8009A
:103D80004E774093E800C7CF81918093F100215096
:103D900031094F5F5F4FE7CF8091C802811541F035
:103DA000853041F08091E80083FFBACF81E008952B
:103DB00082E0089583E00895FC012091CF023091C4
:103DC000D0022617370720F06115710569F09B01B5
:103DD00090E02115310571F491110CC08091E8003B
:103DE00082FF39C080E008958091E8008E7780934B
:103DF000E800EDCF8091C8028115C9F18530C9F185
:103E00008091E80083FD31C08091E80082FDE6CF1B
:103E10008091E80080FFDDCF8091F3004091F200B7
:103E2000582F2115310519F04830510558F091E00F
:103E30004830510509F090E08091E8008E7780933A
:103E4000E800C7CF84918093F10031962150310969
:103E50004F5F5F4FE6CF8091C802811541F08530FA
:103E600041F08091E80083FFB9CF81E0089582E0BE
:103E7000089583E00895982F973028F08F708093ED
:103E8000E90081E008959093E900242F762F50E017
:103E9000981731F07091EC002091ED005091F000F6
:103EA00021FD02C09F5FE8CF3091EB003E7F309351
:103EB000EB003091ED003D7F3093ED003091EB0051
:103EC00031603093EB007093EC002093ED00509341
:103ED000F0002091EE0027FDE5CF80E0089580916D
:103EE000C90287FF13C08091E80082FF06C080915D
:103EF000E8008B778093E80008958091C8028111D3
:103F0000F2CF08958091C8028115D9F38091E8001D
:103F100080FFF8CF8091E8008E77ECCF2091E4000D
:103F20003091E50095E6A9012091EC00822F817087
:103F300020FF06C08091E80080FF06C080E0089561
:103F40002091E80022FD1AC08091C802811589F0F5
:103F5000853089F08091EB0085FD0FC02091E40051
:103F60003091E50042175307F9F29150E1F684E0F1
:103F7000089582E0089583E0089581E008955FD078
:103F800066D0E0EEF0E0808181608083E8ED8081A2
:103F90008F77808319BCA7EDB0E08C918E7F8C93D6
:103FA00080818F7E80831092C7020895CF93DF9324
:103FB00046D04DD0C8EDD0E088818F778883888146
:103FC0008068888388818F7D888319BC1092C8029D
:103FD0001092C4021092C6021092C502E0EEF0E008
:103FE00080818B7F808388818160888342E060E06C
:103FF00080E041DFE1EEF0E080818E7F8083E2EEC1
:10400000808181608083808188608083E0EE808110
:104010008E7F8083888180618883DF91CF9108952E
:10402000E8EDF0E080818F7E8083E7ED8081816024
:10403000808384E082BF81E08093C702B7CFE8ED40
:10404000F0E080818E7F80831092E20008951092CC
:10405000DA001092E10008951F920F920FB60F92AE
:1040600011242F933F934F935F936F937F938F937D
:104070009F93AF93BF93EF93FF938091E10082FFF3
:104080000AC08091E20082FF06C08091E1008B7F30
:104090008093E10027D28091DA0080FF18C08091E0
:1040A000D80080FF14C08091DA008E7F8093DA0000
:1040B0008091D90080FF8FC080E189BD82E189BDF8
:1040C00009B400FEFDCF81E08093C8023DDC809101
:1040D000E10080FF18C08091E20080FF14C0809151
:1040E000E2008E7F8093E2008091E2008061809305
:1040F000E2008091D80080628093D80019BC85E0EE
:104100008093C80233DC8091E10084FF28C0809155
:10411000E20084FF24C080E189BD82E189BD09B449
:1041200000FEFDCF8091D8008F7D8093D8008091D4
:10413000E1008F7E8093E1008091E2008F7E80938A
:10414000E2008091E20081608093E2008091C402ED
:10415000811509F445C084E08093C8020EDC80918B
:10416000E10083FF27C08091E20083FF23C080919C
:10417000E100877F8093E10082E08093C802109283
:10418000C4028091E1008E7F8093E1008091E20083
:104190008E7F8093E2008091E20080618093E20054
:1041A00042E060E080E067DE8091F000886080930C
:1041B000F000D9DBFF91EF91BF91AF919F918F916B
:1041C0007F916F915F914F913F912F910F900FBE13
:1041D0000F901F90189519BC1092C802C1DB77CFC1
:1041E0008091E30087FF02C083E0B6CF81E0B4CFC7
:1041F0001F920F920FB60F9211241F932F933F938C
:104200004F935F936F937F938F939F93AF93BF93DE
:10421000CF93DF93EF93FF93E9EEF0E0808110916D
:10422000EC008F7010FB112717F9182B1082C0EFCC
:10423000D0E08881877F888378941CD0E9EEF0E015
:1042400010828881886088831F701083FF91EF91AE
:10425000DF91CF91BF91AF919F918F917F916F919E
:104260005F914F913F912F911F910F900FBE0F9033
:104270001F901895AAE2B0E0EFE3F1E286C189EC65
:1042800092E0FC0101962091F100208322E0813D23
:104290009207B9F78CDB8091E80083FF37C08091EB
:1042A000C9029091CA029A3088F5E92FF0E0EE53E6
:1042B000FC4D56C1803889F0823841F58091CD029D
:1042C0008F70873018F58093E9008091EB0085FBB3
:1042D000882780F91092E90006C08091C602880FF5
:1042E0009091C502892B9091E800977F9093E80008
:1042F0008093F1001092F1008091E8008E7722C047
:10430000811115C08091CB02813001F18091E800CC
:1043100083FF0AC08091E800877F8093E800809146
:10432000EB0080628093EB00AA96E3E04AC1823002
:1043300069F78091CB02811579F01092E9008091A4
:10434000E800877F8093E800CADDE0CF933009F072
:1043500080E08093C602F1CF8091CD028F70282F2C
:104360002150263098F68093E9002091EB0020FF41
:10437000E4CF933031F48091EB0080628093EB00C6
:10438000DCCF9091EB0090619093EB0021E001C0B5
:10439000220F8A95EAF72093EA001092EA008091B2
:1043A000EB008860EBCF8111B1CF8091CB028F778A
:1043B000182F8091E3008078812B8093E300809117
:1043C000E800877F8093E8008ADD8091E80080FF25
:1043D000FCCF8091E30080688093E30083E01111BB
:1043E00001C082E08093C80291CF8058823008F0EB
:1043F0008DCF8091CB029091CC028C3D23E092072F
:1044000089F583E08A838AE289834FB7F894DE01D5
:10441000139620E03EE051E2E32FF0E05093570086
:10442000849120FF03C082958F703F5F8F708A3028
:10443000B8F0895C8D931D922F5F243169F74FBFCF
:104440008091E800877F8093E8006AE270E0CE0107
:10445000019654DC8091E8008B778093E80056CF7A
:10446000805DE8CF6091CD027091CE02AE014F5FCA
:104470005F4F86DBBC01892B09F448CF9091E8009F
:10448000977F9093E80089819A8196DCE3CF80380A
:1044900009F03CCF8091E800877F8093E80080910D
:1044A000C4028093F10028CF811130CF9091CB02CC
:1044B000923008F02BCF8091E800877F8093E8004E
:1044C0009093C4020CDD8091C402811529F084E030
:1044D0008093C8025BDA1ACF8091E30087FDF7CFA3
:1044E00081E0F6CF0895CF938091C802811591F0B5
:1044F0008091E900C091EC008F70C0FBCC27C7F918
:10450000C82B1092E9008091E80083FDB3DECF70E4
:10451000C093E900CF91089532DD1092C80208954A
:10452000E8EDF0E08081806180838AE18A95F1F78F
:1045300000C08091D9008170089597FB072E16F472
:10454000009406D077FD08D048D007FC05D03EF493
:10455000909581959F4F0895709561957F4F08952F
:10456000EE0FFF1F0590F491E02D09942F923F92DA
:104570004F925F926F927F928F929F92AF92BF9273
:10458000CF92DF92EF92FF920F931F93CF93DF931F
:10459000CDB7DEB7CA1BDB0B0FB6F894DEBF0FBE7C
:1045A000CDBF09942A88398848885F846E847D84C9
:1045B0008C849B84AA84B984C884DF80EE80FD80CB
:1045C0000C811B81AA81B981CE0FD11D0FB6F89441
:1045D000DEBF0FBECDBFED010895AA1BBB1B51E18D
:1045E00007C0AA1FBB1FA617B70710F0A61BB70B63
:1045F000881F991F5A95A9F780959095BC01CD0108
:104600000895FB01DC0104C08D910190801921F413
:1046100041505040C8F7881B990B0895FB01DC01FD
:1046200002C001900D9241505040D8F70895F99979
:10463000FECF92BD81BDF89A992780B50895A8E173
:10464000B0E042E050E020C0262FF999FECF92BDA5
:1046500081BDF89A019700B4021639F01FBA20BD47
:104660000FB6F894FA9AF99A0FBE08950396272F79
:10467000ECDFEADF252FE9DF242FE7CF0196272F94
:10468000E4DFE2CFDC01CB01FC01F999FECF06C0EB
:10469000F2BDE1BDF89A319600B40D924150504000
:1046A000B8F70895F894FFCFA404A404DB04DB0456
:1046B00032054E05CC04CC045205C405D105D10504
:1046C00022131913251316130B130B1316130B13A5
:1046D0000B1341130B134C130B130B130B130B1373
:1046E0000B1316130B130B1316130B1333130B139C
:1046F0000B13611361136113611361136113611370
:10470000611361130E130B1322131513B214211529
:10471000BA1484148814BE148C14C214CE149814C1
:104720001A159C14D214A014D614FB14A414DA1471
:104730000215AA14E014E8149014C6149414CA14B0
:10474000AE14E414F2140B1518157E14B6142815C3
:10475000C115C615C815CD15DD15DD15DD15DD1521
:10476000DD15DD15DD15DD15CF15D315D615DB15DA
:10477000EA15F015F41500180618F117FA170C18B9
:10478000121818185A218021862180218621D321D0
:08479000F52186214722542285
:1047980026020100000001000000000000000601E0
:1047A80000000004070000000000002808503C0733
:1047B80014000001008B19901C631C8B1C861CE2E2
:1047C80000E900EA00B500B600B700CD008301CCCF
:1047D800008A019201940121022302240225022663
:1047E8000227022A02B300B4006F0070009F01CBB9
:1047F800019F02A002E200E900EA00B500B600B796
:1048080000CD008301CC008A01920194012102238A
:104818000224022502260227022A02B300B4006FEE
:104828000070009F01CB019F02A002946697C634D6
:0A48380035F6F73133323644020042
:00000001FF
