:10000000D4C100000C94881BEDC10000EBC10000BE
:10001000E9C10000E7C10000E5C10000E3C1000044
:10002000E1C10000DFC100000C946E200C943B2164
:100030000C943A1AD7C10000D5C10000D3C100000A
:10004000D1C10000CFC10000CDC10000CBC1000074
:10005000C9C100000C94B11AC5C10000C3C10000A1
:10006000C1C10000BFC10000BDC10000BBC1000094
:10007000B9C10000B7C10000B5C10000B3C10000A4
:10008000B1C10000AFC10000ADC10000ABC10000B4
:10009000A9C10000A7C10000A5C10000A3C10000C4
:1000A000A1C100009FC100009DC100002E001E00E4
:1000B0001F002000210022002B0014001A0008005D
:1000C00015001700290004001600070009000A00A7
:1000D000E1001D001B0006001900050000000000E3
:1000E00050004F0022522C0000000000E0003500BC
:1000F000E3002A00230024002500260027002D000D
:100100001C0018000C001200130031000B000D0041
:100110000E000F00330034001100100036003700CD
:100120003800E50028002152520051000000000074
:100130002B00E300E400E2000000000035021E0294
:100140001F02200221022202010001000100010021
:1001500001002F00E000E300E200010001000100C7
:10016000E100010001000100010026020000000082
:100170000100460001000100000000000100010034
:1001800001000100230224022502260227024C005E
:10019000300026002F00610001002E0250005100A7
:1001A00052004F002D0031022702270030005B0073
:1001B0002E002D020100010001006200000000007D
:1001C00001000100010001000000000045003A00AC
:1001D0003B003C003D003E00A80001000100010082
:1001E00001000100A900AC00AE00AB00010001005D
:1001F000AA00010001000100010001000000000050
:1002000001000100010001000000000001000100E8
:10021000010001003F004000410042004300440053
:10022000010026022F002E000100010050005100A5
:1002300052004F00010001000100270230000100C0
:1002400001000100010001000100010000000000A8
:100250000100010001000100000000002C03440027
:1002600061006300740079006C002D004D00610096
:100270006E00750066006F0072006D00200028009F
:10028000350078003600290000000E03740073006A
:1002900068006F0072007400000004030904090282
:1002A0003B00020100A0FA09040000010301010063
:1002B0000921110100012244000705810308000102
:1002C00009040100010300000009211101000122BD
:1002D0007B000705820320000112010002000000DC
:1002E000084D44363501000102000105010902A153
:1002F0000185020901A10005091901290815002538
:100300000195087501810205010930093115812522
:100310007F95027508810609381581257F9501753D
:10032000088106050C0A38021581257F950175089C
:100330008106C0C005010980A101850319012AB702
:1003400000150126B700950175108100C0050C0944
:1003500001A101850419012AA002150126A0029518
:100360000175108100C005010906A101050719E00A
:1003700029E7150025019508750181029501750889
:1003800081010507190029FF150026FF0095067554
:100390000881000508190129051500250195057535
:1003A000019102950175039101C011241FBECFEF89
:1003B000DAE0DEBFCDBF11E0A0E0B1E0E8EBF7E4AA
:1003C00002C005900D92A03BB107D9F722E0A0EB47
:1003D000B1E001C01D92AB3CB207E1F70E940013EF
:1003E0000C949B230DCE8330B8F46C30A8F44630C7
:1003F00098F450E096E0699F400D511D1124FA01D8
:1004000098E4899FE00DF11D1124EE0FFF1FE455C4
:10041000FF4F85919491089581E090E00895E3CF96
:10042000089581E00895FDCF0895FBCF0895F9CF99
:100430000895F7CF0895FDCF089508950895FDCF4D
:10044000089508950895A6E0B0E0E9E2F2E00C9482
:100450000E2349835A839E833091B70189819A8103
:10046000311117C03E81332389F0222379F06CD5F6
:10047000182F682F89819A8146D569817A81812FC9
:100480000E94B10D2696E3E00C942A234DD5182F37
:10049000F4CF5AD569817A81F3CFFC01262F4081B0
:1004A00051816281738184819581CDCFCF93DF9318
:1004B000EC0161E0F2DFBE01B6DF882349F061E0C4
:1004C000CE01EBDFBE01B1DF8170DF91CF910895E6
:1004D00080E0FACF0F931F93CF93DF93EC0160E09E
:1004E000DCDF8C01BE01AADFBE01C801A8DFDF91FD
:1004F000CF911F910F9108950F931F93CF93DF9387
:10050000EC0161E0CADF8C01BE0191DF811106C000
:1005100080E0DF91CF911F910F910895BE01C80136
:100520008ADF8823A9F3BE01C8010E9443188823EB
:1005300079F3BE01C8010E949D14882349F3BE01CE
:10054000C8010E947514882319F3BE01C8010E94D6
:10055000EF0E8823E9F2BE01C8010E94010F882333
:10056000B9F2BE01C8010E941A0FD3CF21E030E0DA
:10057000A90102C0440F551F8A95E2F7CA01FCC3C6
:10058000CF93C82F81E090E00C2E02C0880F991FF6
:100590000A94E2F70E94C00B8C2FE8DFCF910895F8
:1005A00081E00895FDCF0895FBCF0895CF93C82F24
:1005B0009BD38C2FF7DF8C2FF7DF2FEF84E39CE0AA
:1005C000215080409040E1F700C00000CF91089595
:1005D00081E0ECDF0C94D51A80E0E8DF0C94E61A99
:1005E00030DF0E94021A17C018D02CDF0C94061AB4
:1005F00081E008950895CF93DF93D82FF9DFC82FB6
:10060000882311F08D2FF6DF8C2FDF91CF91089585
:100610000895F1CF089580E0FCCF0E948B18F9CFA8
:10062000CF930E948B18C82F8091B2018C1771F064
:10063000C093B2010E94A51A6093B3017093B401F4
:100640008093B5019093B6018C2FE3DFCF9108958D
:10065000ADE0B0E0EEE2F3E00C940F234887598759
:100660006A877B878C879D879111A1D71F8286E03F
:10067000FE013896DE01119601900D928A95E1F700
:100680008D8181110CC029813A814B815C816D8102
:100690007E818F81DCD62D96E2E00C942B23CE0157
:1006A000019604DF8111EFCFF6CFFC0124812130C8
:1006B00019F48081918179C40895662321F00E9404
:1006C000FA150C94C5160E944C16FBCFCF93C82F79
:1006D0008823B9F08238B9F40E94A01881FD11C0B6
:1006E00089E30E945F19CBD72FEF87EE93E021506B
:1006F00080409040E1F700C0000089E30E94651946
:10070000BED7CF910895833899F40E94A01880FD38
:10071000F8CF83E50E945F19B2D72FEF81EE94E006
:10072000215080409040E1F700C0000083E5E6CF13
:10073000843899F40E94A01882FDE3CF87E40E94D8
:100740005F199DD72FEF81EE94E0215080409040BB
:10075000E1F700C0000087E4D1CF8CEF8C0F813A25
:1007600090F48C2F0E94A4138111CBCF8C2F0E9468
:100770002419882321F08C2F0E94651980D78C2F93
:100780000E945F19BDCF80E28C0F883040F4C770A3
:1007900081E001C0880FCA95EAF7ECD6B1CFEBE54E
:1007A000EC0FE33040F4F0E0EB59FE4F808190E035
:1007B0000E94C118A6CFE8E5EC0FEB3150F4F0E051
:1007C000EE0FFF1FE15DFE4F808191810E94E818CE
:1007D00098CF83E38C0F833108F093CF61E08C2FA7
:1007E0006CDF8FCF882309F44DC0823861F40E94FA
:1007F000A01881FF47C089E30E945F1940D789E3B1
:100800000E9465193CC7833851F40E94A01880FFEC
:1008100039C083E50E945F1932D783E5F1CF843870
:1008200051F40E94A01882FF2DC087E40E945F1936
:1008300026D787E4E5CF9CEF980F913A08F390E232
:10084000980F983048F4877091E001C0990F8A950D
:10085000EAF7892F95D6D6CF9BE5980F933020F4F1
:1008600090E080E00C94C11898E5980F9B3120F43B
:1008700090E080E00C94E81893E3980F933110F423
:1008800060E01BCF08951F93CF93DF93182FEB01E8
:100890001DDF209731F4812FA5DFDF91CF911F91CC
:1008A00008958FE99FE00197F1F700C000002197BC
:1008B000F0CF70E060E0893311F460E570E0E3CFE1
:1008C000882311F057D6DBC60895882311F058D637
:1008D000D6C60895B0E0A0E0E0E7F4E00C94082369
:1008E0006C01D62FC72FFC011581068102950F7070
:1008F00037D6E82E8823E9F0E12E1123D1F08C2F92
:10090000807F803461F080E28D0F8830F8F08C2F8A
:10091000807E803221F4D230C8F00023B9F080917B
:100920009B0282FF13C082E0C6D61AD691E0E82E61
:10093000E926BC2EB2949FE0B922FBE0FB1580F1C2
:10094000EB2DF0E0E356FC4D0C94F922E12CF1CFB5
:100950000C2F0F70C07F11F00295007F112381F0E2
:10096000002349F080E28D0F883010F0D11105C0CE
:10097000802F00D684D68D2F40C0802F0BD6FACF83
:100980008D2F30DF002361F080E28D0F883010F072
:10099000D11103C0802FF4D502C0802F01D66FD6AD
:1009A000EB2DE850FF0B349708F04CC10E948B18D8
:1009B00030DECDB7DEB7E9E00C9424232C2F2F7066
:1009C000F22EC07FC03219F0F29480EFF822DD23BE
:1009D00041F0D13081F1112309F439C00023C9F06D
:1009E000CACF80919B0282FD10C0112341F0FF20ED
:1009F00019F08F2DBFD543D680E068DED1CF80E0DF
:100A0000F1DEFF2069F28F2DC6CF112359F00111BD
:100A100003C08F2D55DFC4CF013009F0C1CF8F2D1A
:100A2000DAD5BECF0111BCCF8F2D4FDF8F2DDED594
:100A30008F2DC3D5B5CF112321F0063008F0B0CFEC
:100A4000E8CF053008F0ACCF8F2D3FDFA9CF0023D2
:100A5000D9F3D93349F43FEF87EE93E0315080402A
:100A60009040E1F700C000008D2FBCDE99CF8C2FA5
:100A700086958695837069F0813009F091CF8D2F2E
:100A80009C2F9370111102C080E090E00E94E81842
:100A900087CF8D2F9C2F9370111102C080E090E0C2
:100AA0000E94C1187DCF612F8D2F07DE79CF8C2F4B
:100AB000837081F5111174CF4D2F42954695477083
:100AC000440F440F2D2F2F7030E0042E02C0220F50
:100AD000331F0A94E2F790E080E0D4FF09C08FE072
:100AE00090E002C0880F991F4A95E2F78095909593
:100AF000C695C695C370822B932BC23039F040F453
:100B0000C13011F042D14CCF39D14ACF45D148CF75
:100B100033D146CF8695112311F08C2F8170882315
:100B200009F43ECF4D2F429546954770440F440F30
:100B30002D2F2F7030E0042E02C0220F331F0A9495
:100B4000E2F790E080E0D4FF09C08FE090E002C0BF
:100B5000880F991F4A95E2F780959095C695C6959E
:100B6000C370822B932BC23039F040F4C13011F0A6
:100B700067D116CF5ED114CF6AD112CF1AD110CF60
:100B8000CF70112321F08C2F28D18D2F43CF8D2FA3
:100B90009CDE8C2F30D104CFD23F39F160F4D03FAE
:100BA000B9F0D13F81F0112309F43CC00111E3CE2B
:100BB0008C2F8F711EC0D33FF1F0D43FA1F78091ED
:100BC0009B0282FD20C08C2F8F71112319F311C05D
:100BD000112339F0053008F0E3CE8C2F8F711BD133
:100BE000DFCE063008F0DCCEF8CF8C2F8F711111DC
:100BF000D1CFF3D0D5CE112321F08C2F8F71E3D03C
:100C0000CFCEDED0CDCE112329F063E08C2F8F71B3
:100C10003BD5C6CE81E04FD5023008F4C1CE82E08C
:100C20004AD5BECE002359F0D93309F01DCFEFEFDE
:100C3000F7EE23E0E150F0402040E1F713CF8C2F96
:100C40008F71A8CFEE2009F4B4CE86D480FDB1CE4A
:100C5000F60115827BD4C1D0C60117D077D4CBD092
:100C6000A8CE0F931F93CF93DF93EC016881798116
:100C70008D81A4D18C01F2D07ED0B801CE012ADEC4
:100C8000DF91CF911F910F910895CF93DF93EC01E6
:100C90008C81882381F0CE012FDC81110FC060D4BC
:100CA000882349F08D81882331F080919B0282FF57
:100CB00002C082E000D5DF91CF910895CE01D1DF4F
:100CC000CE0108DCF8CF90E080E00E94C11890E0EF
:100CD00080E00E94E8186BD4D2D40E94DE160C94F7
:100CE000C5160E946B19EFCF52D4FBCF92959F701F
:100CF000963091F058F4925F9F70923058F4803F94
:100D000019F030F4883E30F481E008959A5FF4CF12
:100D1000843FD1F380E00895883EB0F3813FD1F75E
:100D2000F3CFFC012481222321F0808191813DD1E8
:100D3000DDCF80E00895A6E0B0E0E1EAF6E00C94B3
:100D40000F232696E2E00C942B23A7E0B0E0EBEA19
:100D5000F6E00C940F232796E2E00C942B230895E1
:100D6000FECF0895FDCF0895FADFFCDF9093DF01F9
:100D70008093DE0108950895F7CF08952091DE0154
:100D80003091DF01822B932BEFCF2091DE01309148
:100D9000DF0182239323E8CF2091DE013091DF0130
:100DA00082279327E1CFDBCF0895FDCF0895D7CFDA
:100DB0000895FDDFFADF9093DD018093DC01089553
:100DC00090E080E0F6CF21E030E0A90102C0440FBE
:100DD000551F8A95E2F7CA01ECCF21E030E002C04E
:100DE000220F331F8A95E2F78091DC019091DD019B
:100DF000822B932BDECF21E030E002C0220F331F85
:100E00008A95E2F7209530958091DC019091DD0183
:100E100082239323CECF21E030E002C0220F331F84
:100E20008A95E2F78091DC019091DD01822793277A
:100E3000C0CF2091DC013091DD01822B932BB9CF03
:100E40002091DC013091DD0182239323B2CF2091E8
:100E5000DC013091DD0182279327ABCF0895262F47
:100E6000277091E001C0990F2A95EAF723E0769563
:100E700067952A95E1F7660F771F660F771FFA01CE
:100E8000E60FF71F50E040E0682F70E08191DF012E
:100E900011979B01042E02C0369527950A94E2F71C
:100EA000217021952827292328272C934F5F5F4FF6
:100EB0004430510559F70895A82FA77023E096955F
:100EC00087952A95E1F7880F991F880F991FFB01D5
:100ED000E80FF91F50E040E080E0219130E00A2E59
:100EE00002C0369527950A94E2F721703327042E25
:100EF00001C0220F0A94EAF7822B4F5F5F4F443004
:100F0000510559F70895262F9C3068F4863058F41F
:100F1000682F70E086E0989F600D711D112448EBEA
:100F200051E0822F9CCF0895292F9C3058F48630B1
:100F300048F490E068EB71E036E0239F800D911D4E
:100F40001124BACF80E00895B0E0A0E0EAEAF7E02B
:100F50000C9408237C010091DC011091DD0180914B
:100F6000DE019091DF01082B192BCFE0D0E0CC24DB
:100F7000C394D12CBC2EC6010C2E02C0880F991F21
:100F80000A94E2F780239123892B49F4219790F763
:100F9000B12C8B2DCDB7DEB7E9E00C942423B7013B
:100FA0008C2FEAD5019791F3F4CFCF93DF93EC0127
:100FB000CBDFBE01E1D5DF91CF9108951F93CF9391
:100FC000DF93EB019091B701992331F0CB01EDDF75
:100FD000DF91CF911F910895882351F0CB01B4DFA9
:100FE000182F682FCE018FDFBE01812FC5D5F0CF1E
:100FF000CB019ADF182FF8CF1F93CF93DF93C091C7
:10100000E00117E08091E1018C1304C0DF91CF91E2
:101010001F910895D0E01C9FF0011D9FF00D112439
:10102000EE51FE4F2081318142815381648175816F
:1010300086818BDE2196C770E5CF20911A02309110
:101040001B0240911C0250911D0260911E02709182
:101050001F028091200279CECF93DF9380912002EE
:10106000807F09F04BC080911F02882309F446C09D
:10107000E091E0015091E101C0911B02D0911A0270
:1010800060911C0270911D0247E05E17B9F18E2F2E
:1010900090E0E49FF0011124EE51FE4F24812223C1
:1010A00081F1489FF001499FF00D1124DF01AE51FD
:1010B000BE4F11962C9111972C1323C02C912D13F8
:1010C00020C015962C91159721111BC012962D91B9
:1010D0003C91261B370B283C310598F48091200267
:1010E0008F70806180932002E851FE4F80818F7065
:1010F000806180838AE192E0C8DD7EDFDF91CF915D
:101100000895FC013196E770C0CF482F2091E0018F
:101110009091E10157E0291302C080E0089530E08A
:10112000529FF001539FF00D1124EE51FE4F81812B
:10113000681306C08081481303C085818111EECFFA
:101140002F5F3F4F2770E7CFA4E1B0E0EAEAF8E075
:101150000C9405238C0186E0F801DE011F960190B6
:101160000D928A95E1F7D80114968C9114971596F3
:10117000EC9015979AE1A92E92E0B92E90911E025B
:1011800091111AC08823A9F0EE2089F0C801C9DDA9
:10119000F82E882361F087E0F801D50101900D92C7
:1011A0008A95E1F7C50181DA57DF47DF3AC0C80108
:1011B0006CDDFF24F39435C0F801C080D1808280BB
:1011C0009380F0901F0220911C0230911D02A40117
:1011D000421B530BFF2009F4E7C0483C510508F0BF
:1011E0009AC08823F1F090911B0280912002282F51
:1011F000207F09F060C09D1119C090911A02C91298
:1012000015C0E11052C08F7080618093200215DFFD
:101210008AE192E03ADD80912002D80116968C9303
:10122000F12C8F2D6496ECE00C942123E1103DC04D
:101230006D2D8C2D6ADFE82E882361F08AE192E023
:1012400024DD87E0EAE1F2E0DF011D928A95E9F70B
:10125000F4DEE6CFCF86D88A8F859889A6DE292F3F
:1012600022952F70243058F49F70223080F09923FB
:1012700091F0F8019681907F71F4FE2CD2CF2A5F15
:101280002F70223060F0C80100DDEF2CF6CF9923DB
:1012900011F0882391F3805E883078F3F4CF803F9B
:1012A00060F3815F833078F7E8CF8091200281601E
:1012B00080932002B5CF9D1107C090911A02C912E8
:1012C00003C0EE2009F494C0C8012BDD882309F483
:1012D0006ECFEE2009F46BCF80912002803280F037
:1012E00020911A0230911B02398728879B868A86B3
:1012F00090911E029C871D868E87CE010896C5DCC4
:1013000087E0F801AAE1B2E001900D928A95E1F739
:10131000A3DE93DE4ECF90912002292F207F81F40F
:10132000682D9A8A898AA6017A899E2D04DD8AE130
:1013300092E0ABDC87E0F50111928A95E9F788CF5E
:10134000882309F46ECF80911B028D1110C080910B
:101350001A02C8120CC0E1100AC016969C93C8016C
:1013600094DC87E0F50111928A95E9F75ACFC8011C
:10137000D8DC882309F41BCFEE2009F418CF809124
:101380002002803208F4BCCF20911A0230911B0257
:101390003A8329839C828B8290911E029D831E82B8
:1013A0008F83CE010196ABCF483C510508F042C077
:1013B000882309F4FECEFE2CEE2009F4F8CE8091AD
:1013C0001B028D112BC080911A02C81227C0809178
:1013D000200280FD1AC0982F907FB9F016968C934A
:1013E0001697903F39F0982F907F905F8F70892BE0
:1013F00016968C93C80149DC87E0F801AAE1B2E0B7
:1014000001900D928A95E1F7D0CE87E0F801AAE12C
:10141000B2E001900D928A95E1F703CFC80181DC1B
:1014200081116ECF80912002816080932002C801DB
:101430002CDCF7CE682D9A8A898AA6017A899E2D9E
:101440007ADC87E0F50111928A95E9F7AECEAEE03D
:10145000B0E0EDE2FAE00C940E23288739874A8742
:101460005B876C877D878E87CE0108966DDE88232B
:10147000A9F06C85662339F0288539854A855B8516
:101480007D858E8562DC17E08091E0019091E1011D
:1014900089133BC02E96E3E00C942A2387E0FE01DB
:1014A0003896DE01119601900D928A95E1F78C85B0
:1014B000882349F32091E10130E0C901019687704A
:1014C00099274091E0014817190691F097E0929F03
:1014D000D001939FB00D1124AE51BE4FFE01319645
:1014E00001900D929A95E1F78093E10185DDCBCFD4
:1014F000FBDB1092E1011092E00187E0EAE1F2E00B
:10150000DF011D928A95E9F7BECF819FC0011124AA
:101510008E519E4F19DE882309F4BCCFE091E00183
:101520001E9FF0011124EE51FE4F20813181428136
:10153000538164817581868108DC8091E00190E0AF
:101540000196877099278093E0019ECF80912902B0
:1015500086958695869508958091290287700895CD
:1015600090912902977081E009F480E008958091BC
:101570003502089590913502892B809335020895A4
:10158000809590913502982390933502089510929A
:101590003502089590913402892B80933402089586
:1015A000809590913402982390933402089510927C
:1015B000340208950895FECF089590912A02292FAC
:1015C000282329F08095892380932A02F4CF089557
:1015D0000895FECF089590912B02292F28232817D4
:1015E00021F0982B90932B02F4CF089590912B0229
:1015F000292F282329F08095892380932B02E9CF76
:10160000089580912B02882321F010922B0280E014
:10161000E0CF08950F931F93CF93DF9300910001C4
:1016200010910101C091350280913402C82B809144
:101630002B02882329F0C82B0E940F198111E1DFAA
:10164000F801C083C0910001D091010148E050E051
:1016500061E272E0CE010E944A23892B59F088E0B2
:10166000FE01A1E2B2E001900D928A95E1F7CE0170
:101670000E94A218DF91CF911F910F910895CACFB8
:1016800008950895FECF089590919B0292FF0EC099
:1016900098E0899F90011124622B609329029DDBC1
:1016A00080912902869586958695ECCF96CB1092EF
:1016B000290280E0E7CF90912902809589238093C9
:1016C0002902282F277059F4891749F090919B021D
:1016D00092FF05C08695869586958DDBE8CF0895A7
:1016E00090919B0292FB222720F9281749F080FB5A
:1016F00092F990939B028AE992E046D082E0DBCF98
:10170000089580919B0282FB882780F991E08927C8
:10171000E7CF81E0E5CF80E0E3CF60E070E0CB0190
:10172000F0C360E070E0CB01E6D3F7CFA3E0B0E018
:10173000ECE9FBE00C940F2397D3A2D31B82CE01DC
:101740000396B5D381E090E09093DF018093DE01B2
:10175000BAD31A8219828A8184618A83CE01019662
:10176000C3D3DFDF2396E2E00C942B23DFCF089571
:101770008DC308957AC308958FC308959EC30895B5
:10178000A2C30895A5C30895AFC30895C0C3089523
:10179000A6E0B0E0EEECFBE00C940D230E94991A59
:1017A0008C0180913602909137028017910781F069
:1017B00019821A820E94991A682F49815A81792FB9
:1017C00080E090E00E9428031093370200933602D5
:1017D0002696E4E00C942923E7D2609348027093A4
:1017E000490280934A0290934B02609344027093A3
:1017F0004502809346029093470208950895089504
:10180000FDCF08950895FEDFFBCF0895FECF089524
:101810000895FEDFFBCF81E008958DEE9EE000D7B6
:10182000EEDFF1CF19C50895089508950895FCDFFE
:10183000FCDFFCCF9FDF811101C098DF8CE492E0D8
:101840009BDF8AE992E09EDF99DF96DA8091DC01E6
:101850009091DD01AACA0E94901A81D202D55AD471
:10186000E9DF0E9408030E945D1408D5D2CFA6E0EC
:10187000B0E0EDE3FCE00C940623CDDF81110AC05B
:1018800087DFEAD40E9400170E9410032696EBE03F
:101890000C9422235ED488E3A82E82E0B82E750132
:1018A00010E0F70101917F01812F3CD31F5F1C30B5
:1018B00009F43DC00817A9F380914C0281FD38D38B
:1018C000B1DFC82E10E099249394812F2BD3082FD9
:1018D000F50181915F01081729F1F12CEE24E394C1
:1018E000D02ED8268D2D8E21A9F0CC2099F0F9820A
:1018F0001A830E94991A9C838B839D8291E0802F8A
:101900008E2109F490E049815A816B817C818D811F
:101910000E942803F394EE0CF6E0FF12E3CFF501EA
:10192000319700831F5F1C3081F656DFAACF081362
:10193000C3CFA6CF1F93CF93DF9320D1EC01C11566
:1019400080E5D807F0F5C11580E4D80708F09AC003
:10195000C03ED10520F5CD3CD10508F082C0C83A83
:10196000D10578F4C53AD10508F073C0C130D1056E
:1019700019F1209709F1C430D105F0F4D0E0C0E0AE
:101980001BC0C33CD105D0F7C85AD0E0CC0FDD1F37
:10199000C859DE4F0990D881C02DD4640DC0C1153F
:1019A00080E2D80708F0CDC0C11581E0D80708F063
:1019B0005AC0C83ED10510F7CE01DF91CF911F91DB
:1019C0000895C03682E5D80718F5C03482E5D807F7
:1019D00008F068C0C03282E5D80708F05CC0C115C5
:1019E00082E5D80708F493C02C2F2695269580E22F
:1019F000289F900111248C2F8370C1E0D0E002C099
:101A0000CC0FDD1F8A95E2F7C22BD32BDD68D4CF34
:101A1000C03A82E5D80760F4C03882E5D80708F4F8
:101A200056C0CF71D0E0DC2FCC27C46FD06AC4CFB2
:101A3000C03C82E5D80708F45FC0C03E82E5D80705
:101A400008F09CCFDC2FCC27CC27DF71C06FD06A89
:101A5000B3CFC55AD0E0C256DE4FC881D0E0D064C3
:101A6000ABCFD065A9CF8D2F2BD1182FCE019927C1
:101A700085D0C12FD0E0DC2FCC27CC27DF71C82B3D
:101A8000D92B9ACFCE01992779D0CC27DF70C82BDC
:101A9000D92BD06A91CFCF71D0E0DC2FCC27C16F8A
:101AA000D06A8ACF2C2F26952695277080E2289F12
:101AB000900111248C2F8370C1E0D0E002C0CC0FC4
:101AC000DD1F8A95E2F7C22BD32BDC6875CF2C2F54
:101AD00026952695277080E2289F900111248C2F4F
:101AE0008370C1E0D0E002C0CC0FDD1F8A95E2F721
:101AF000C22BD32BDA6860CF8C2F8F71E1D0C82F27
:101B0000D0E0DC2FCC27CC27DF71D06255CF8C2FD3
:101B10008F71D6D055E0D695C7955A95E1F7CF701D
:101B2000D0E0DC2FCC27282F30E084FF06C044E033
:101B3000220F331F4A95E1F73327C22BD32BD069ED
:101B40003BCF8D2F8F71BCD0182FCE01992716D087
:101B5000C12FD0E0DC2FCC27CC27DF71C82BD92BAD
:101B6000D4CF462F7C3028F4663018F4672F0C94BD
:101B70000F0290E080E00895F4DFDCCE823891051A
:101B8000B9F1B0F48133910509F47DC048F489328C
:101B9000910509F46DC08A32910509F47BC008955E
:101BA0008533910509F45FC08933910509F10895E2
:101BB000833E9105D9F138F4803E910529F1823EAA
:101BC000910579F10895863E9105D9F1873E9105F9
:101BD00009F43EC0843E910541F520919B0221FF0E
:101BE00024C080919A0284FD19C087EE90E0089588
:101BF00020919A02237009F05AC020919B0223FF82
:101C000014C089E290E0089520919A0220FD38C026
:101C100030919B0230FF09C024FF43C090E080E078
:101C2000089520919A0222FDF7CF089520919A02FB
:101C300022FD3AC030919B0230FD39C024FFF5CF20
:101C4000EDCF20919A0223FFF0CF24FDE7CFCDCF37
:101C500020919A0223FD2EC030919B0231FFEECFDE
:101C600084EE90E0089520919A0225FFDECFC9CF3F
:101C700020919A0225FD21C020919B0223FFD5CF00
:101C800089E390E0D2CF20919A0226FFCECF8AE25C
:101C900090E0089520919A0226FFC7CF81E390E05B
:101CA000089583EE90E0089582EE90E0089580EE2E
:101CB00090E0089586EE90E0089585E390E0089521
:101CC00090919A0292FF10C041E0282F2471243095
:101CD00009F040E031E0282F2871283009F030E089
:101CE000431711F02CE0822793FF10C041E0282F0A
:101CF0002471243109F040E031E0282F2871283187
:101D000009F030E0431711F02CE0822730919B025C
:101D100030FF10C051E0282F2171213009F050E030
:101D200041E0282F2871283009F040E0541711F0C5
:101D300029E0822731FF10C041E0282F2171213195
:101D400009F040E031E0282F2871283109F030E017
:101D5000431711F029E0822794FD877E08951092A1
:101D60009C0210929D0210929E0210929F02089572
:101D7000CF92DF92EF92FF926B017C016DD28111C5
:101D80000EC00E94A51AC61AD70AE80AF90AC0921C
:101D90009C02D0929D02E0929E02F0929F02FF90E0
:101DA000EF90DF90CF9008950F931F9355D2882323
:101DB00029F00E94A51A1F910F9108950E94A51A5B
:101DC00000919C0210919D0220919E0230919F02F1
:101DD000600F711F821F931FEECF80E00895CF9395
:101DE0009C01205E3245C1E02032310538F4FB0110
:101DF000C581C11103C08F710E94C0028C2FCF9189
:101E000008959C01FB018581882391F02B35FCE727
:101E10003F0761F02C359CE7390729F02A353C470C
:101E200041F477DC01C06DDC80E0089574DCFCCF08
:101E300081E008959C01FB018581882399F0213080
:101E4000FCE73F0761F023309CE7390739F02115A3
:101E50003C4749F40E94E80280E0089589DC0E9432
:101E6000EC02FACF81E00895089590E080E00E94AE
:101E7000682321E0833E9E4F09F020E0822F0895E1
:101E800063EE7EEF90E080E00C9487236FEF7FEFAE
:101E900090E080E00C948723CF93DF93EC0182E005
:101EA00090E00E9460238883DF91CF910895FC0128
:101EB000608182E090E00C946D2383E090E00E94CA
:101EC000602390E00895682F83E090E00C946D23E8
:101ED000CF93DF93EC0184E090E00E946823998324
:101EE0008883DF91CF910895FC016081718184E046
:101EF00090E00C948723AB01BC018FE090E00C9440
:101F00007F23AB01BC0183E190E00C947F23682F19
:101F10008EE090E00C946D230895FECF089508950F
:101F2000FECF0895E82FF0E0E355FD4F808108953E
:101F3000089580EA8A95F1F7089500C00895F9CFD1
:101F400008950895FECF0895A6E0B0E0EAEAFFE024
:101F50000C940B2381D1F82E6091B902882309F4E7
:101F60003EC086E0E82E8E010F5F1F4FF8018E2DD8
:101F700011928A95E9F7862F90E0B80183559D4F1D
:101F800089D18823B1F08091A00290E046E050E032
:101F9000B80183559D4F0E944A2321E020934D02B2
:101FA000892B89F4F12CBCDF8F2D2696E6E00C946A
:101FB000272380914D028823A9F3F8011192EA9416
:101FC000E9F710924D02A091A002B0E0A355BD4FD9
:101FD00086E0F80101900D928A95E1F7E4CF70E078
:101FE00063557D4F8091A00290E083559D4FD7D1DE
:101FF000A9DFDACFF894E82FE295EF70F0E031A195
:10200000282F2F7081E090E001C0880F2A95EAF711
:10201000982F9095932391A392A1892B82A37894D2
:1020200008950F931F93CF93DF93C7EAD1E089916F
:102030008F3F09F0DFDF81E0CD3AD807C1F7C1EA71
:10204000D1E007EA11E089918F3F09F0D3DF0C1747
:102050001D07C9F7DF91CF911F910F910895B0E04F
:10206000A0E0E5E3F0E10C940923EC01D62E062F65
:1020700010E0C80189559E4F7C01FC0180818F3F93
:1020800009F441C0F894E82FE295EF70F0E091A1D7
:102090008F7021E030E001C0220F8A95EAF7892F86
:1020A000822B81A382A12095282322A3789445DF47
:1020B000E1EAF1E031E0C12C21912F3F49F1A22F5B
:1020C000A295AF70B0E090968C9190E02F7002C016
:1020D000959587952A95E2F780FD1AC0832FC82A27
:1020E000330F81E0E73AF80739F7F70180818F3F36
:1020F00009F080DF61E0C11001C060E08D2D1FDFBD
:10210000C00FD11FC882CDB7DEB7E8E00C942523FD
:1021100080E0E5CF809102018091020196E081117B
:1021200090E09093B90286E0891B8093A00279DF4A
:102130008CE0EDEAF2E0DF01982F1D929A95E9F725
:10214000E1EAF2E0DF011D928A95E9F786E03CD0F2
:10215000E4CEACE0B0E0EFEAF0E10C940C238E01A9
:102160000F5F1F4F8CE0F80111928A95E9F7F12C6F
:102170006F2DC80174DFF394F6E0FF12F9CF4CE045
:1021800050E0B80181EA92E00E944A2321E00097E2
:1021900009F420E0892B41F08CE0F801A1EAB2E0DB
:1021A00001900D928A95E1F76091B90270E0635554
:1021B0007D4F46E081EA92E008D0182FC5DE812BE2
:1021C0002C96E5E00C9428230895B0E0A0E0EBEE17
:1021D000F0E10C9409236C017B01042FC22F222310
:1021E00079F081E0809350020E94991A90934F02F7
:1021F00080934E0280E0CDB7DEB7E8E00C94252353
:10220000D0915002DD23B1F380914E0290914F02A4
:102210000E941A1A059770F310E0A801B601C701D1
:102220000E944A23892B31F0A801B601C7010E9400
:102230005723CD2F109250028C2FDDCFCF930E94C9
:10224000D922C82F811102C00E94D5228C2FCF9194
:102250000895809154020895809153020895FCCF0F
:102260000895ECDF80935302FADF80935402F1DF8C
:1022700080930201F1DF811142C00895EDDF8111E9
:1022800001C040C0089581E0909155029A3008F055
:1022900080E008950F931F93CF93DF93EC018B01A0
:1022A000809155028A30B0F4B801CE0176D0C82FA3
:1022B000811122C0809155028F3FB9F40E94991A72
:1022C00090935202809351028C2FDF91CF911F91F6
:1022D0000F91089580915102909152020E941A1A12
:1022E000843F914008F7C0E0EFCF8F5F80935502A5
:1022F0008A3020F7C1E0E8CF10925502E5CF0C9468
:10230000451B08950C94481B0895B0E0A0E0EBE84D
:10231000F1E10C940A237901C82F880FDD0B4115D8
:102320005105A9F0FE0193E0EE0FFF1F9A95E1F72A
:10233000ED5FFE4F818192818A5A9D4F208130E06E
:102340004217530708F49A01A9010E945723CE01AE
:102350000E94281CD82E8823D1F001151105B9F050
:1023600083E0CC0FDD1F8A95E1F7FE01ED5FFE4FA4
:10237000438150E00417150708F4A801CD5FDE4F34
:102380006C817D816A5A7D4FC7010E9457238D2D34
:10239000CDB7DEB7E7E00C942623E7C00895FAC076
:1023A0000895A4E0B0E0E7EDF1E10C940D23609115
:1023B0006F027091700280917102909172020E947E
:1023C000231A11E0643671058105910508F1ECDCF2
:1023D0006E5F7F4F8F4F9F4F69837A838B839C8380
:1023E00010E000E030E020E044E050E0BE016F5F2C
:1023F0007F4F82E08ADF182F882351F00E94A51AB0
:1024000060936F02709370028093710290937202D6
:10241000812F2496E4E00C942923B0E0A0E0E3E1CE
:10242000F2E10C9407237C015B016A012CDF01E0DF
:1024300010E0882311F00AE010E0C1E0D0E0B5011F
:10244000C701F6010995811104C021960C171D07DB
:102450002CF4CDB7DEB7EAE00C942323CC9F900197
:10246000CD9F300D300D112490E080E045E34A957A
:10247000F1F70000019682179307C1F7E0CFA7E0BC
:10248000B0E0E5E4F2E10C9407237B01C090AD01DC
:10249000D090AE0101E010E09E01295F3F4F50E077
:1024A00040E070E060E080E030DF182F882309F41E
:1024B00044C056018FEFA81AB80A60916B02709160
:1024C0006C0280916D0290916E02BDD764367105E9
:1024D0008105910558F106E010E09E012F5F3F4F06
:1024E00050E040E070E060E081E00FDFD82E66E071
:1024F00070E0C501E3D111E09F81981310E01D2128
:1025000039F10E94A51A60936B0270936C0280935C
:102510006D0290936E0286E0FE013196A5E6B2E070
:1025200001900D928A95E1F711E012C066E070E02B
:10253000C501C4D19F818913CECF86E0F6013196C3
:10254000DE01119601900D928A95E1F71111E3CF0A
:1025500086E0E5E6F2E0D70101900D928A95E1F779
:10256000812F2796EAE00C9423230F931F93CF9398
:10257000DF93EC018B014FE352E14FDF882329F019
:1025800041ED51E1B801CE0148DFDF91CF911F91BC
:102590000F9108950F931F93CF93DF93C091AD01D7
:1025A000D091AE01CE01019626E0FB01DC01019045
:1025B0000D922A95E1F766E070E080D188836F8103
:1025C000788589859A850091610210916202209137
:1025D000630230916402601771078207930749F024
:1025E000609361027093620280936302909364022D
:1025F000BFDBDF91CF911F910F91089538C90895E6
:1026000032D70E94BC1D09D90E94D41D24D90E9432
:10261000DD1D0E94E01DF2DF0E94F61D08D9F9CFF2
:102620009093B1018093B00108958B3109F464C097
:1026300040F58B3071F078F4863009F446C020F410
:10264000853059F180E00895873009F447C088301B
:10265000C9F781E00895803109F45CC068F48E30D8
:1026600089F790914C02892F8B7F92FF8460809331
:102670004C0282FD4BC0EDCF863159F3893149F3CD
:10268000E1CF8A3201F160F48732B1F020F48E316B
:10269000C8F28D514BC08932A9F60E94E802D9CF09
:1026A000833440F48A3308F040C0853329F08833FE
:1026B00081F2C8CF833431F681E090E00E94BC06FD
:1026C0000E947406C6CF52D8C4CF80914C02807F3E
:1026D00080934C0281E080937602089590914C02A1
:1026E000892F8E7F90FF816080934C0280FDB1CF57
:1026F000817F80934C02ADCF90914C02892F8D7FCA
:1027000091FF826080934C0281FFA3CF80914C02A5
:102710008160EFCF90914C02892F877F93FF886073
:1027200080934C0283FDF2CF94CF895321E030E0B7
:10273000A90102C0440F551F8A95E2F7CA01BECF16
:1027400080E00895FDCF0895CF93C82F8091760241
:102750008130A9F0882331F0823089F1109276021D
:1027600080E00BC00E94B70A8232D1F78C2FE8DFDD
:10277000811119C08C2F59DF8170CF9108950E946B
:10278000B70A823299F38C2FDDDF81110AC0C43180
:1027900099F060F4CB3029F0C03171F782E080937A
:1027A000760281E0E9CF81E090E0E6CFC93221F006
:1027B000C833B9F380E0E0CF10927602FBCFC93284
:1027C00009F43FC0E8F4C431E1F128F4C73009F45A
:1027D0005BC081E0D2CF82EE8C0F8A30D0F7CD5132
:1027E000C0937502C33009F446C0B0F5C13009F496
:1027F0003FC080E291E0C230B1F110927502E9CFA2
:10280000C03509F452C0B8F48AE0CF3411F7E09132
:102810007302F09174023097E1F22081082E000CCF
:10282000990B820F911D8F3F910509F00CF441C067
:102830008FEF8083CECFC135D1F181E0C23539F33E
:102840009CCF80917502882321F21092750210921C
:10285000740210927302BDCFC53099F078F08BE10D
:1028600091E0C63051F69093740280937302B1CF19
:1028700089E792E0F8CF8FE191E0F5CF8EE191E02A
:10288000F2CF8CE191E0EFCF1092790284E1809356
:102890002001C0931F018CE380931E0188E0809388
:1028A0001C0188E280931B0194CF86EFB0CF8FEF9D
:1028B000AECF97FFBECF10828CCF0895FC01680F7A
:1028C000791F8FEF91E3E617F70709F40895219137
:1028D000822728E030E087FF06C0880F8927215033
:1028E0003109C9F7F0CF880FFACFCF93DF93EB010F
:1028F00086319C4701F50E94B70A9D81992391F08A
:102900008A7A91E009F490E090937702811108C0EF
:1029100089E2D5D40E943F0B80E0DF91CF910895EA
:1029200085E3F7CF80917702811103C089E2CDD48E
:10293000F1CF85E3FCCF81E0F0CFCF93DF93EC01C3
:10294000FB018581882309F4CEC09E0130572332D4
:10295000310508F0AEC08AE992E00E94C20BFE0188
:10296000E150F047E232F10520F4E755FC4D0C94BC
:10297000F92280919A02816080939A0293C080919B
:102980009B02886080939B028DC080919A02826036
:10299000F3CF80919A028460EFCF80919A02886091
:1029A000EBCF80919B028160EDCF80919B02826092
:1029B000E9CF80919A028061DFCF80919A02806294
:1029C000DBCF80919A028064D7CF0E9474068091F9
:1029D0009A028068D1CF80919A028C60CDCF80918D
:1029E0009B028360CFCF80919A028E7FC5CF80916A
:1029F0009B02877FC7CF80919A028D7FBDCF809148
:102A00009A028B7FB9CF80919A02877FB5CF809150
:102A10009B028E7FB7CF80919B028D7FB3CF809139
:102A20009A028F7EA9CF80919A028F7DA5CF809147
:102A30009A028F7BA1CF0E94740680919A028F77B1
:102A40009BCF80919A02837F97CF80919B028C7F4E
:102A500099CF80919A0282FB992790F921E09227E1
:102A600090FB82F990FB83F987CF80919B02982F8E
:102A7000909591708E7F892B90FB81F983CF9091F7
:102A80009A02892F8F7B96FF806476CF0E9474060E
:102A900090919A02892F97FB87F980586DCF81E03A
:102AA0000E94C60B8AE992E00E94C40B0E94740641
:102AB00080E0DF91CF91089580E0F2CF90919A026B
:102AC000892F8F7E94FF806157CF90919A02892F32
:102AD0008E7F90FF816050CF90919B02892F877FDE
:102AE00093FF88604FCF81E0E4CF282F35EB23039D
:102AF000C001112497FF04C080589109892F0895BF
:102B000080589F4FFBCF8091800280FF0DC0609165
:102B10001F0170E0660F771F6038710570F5611551
:102B2000710569F1862F089581FF07C060911F012B
:102B300084E0689FB0011124EFCF60911F0182FDF6
:102B40000AC080917F028823A9F020911E01609124
:102B50001F01821710F088E0ECCF869FC00111247E
:102B600033E0880F991F3A95E1F7622F70E00E94D9
:102B7000E622D2CF68E070E0D5CF8FE7089581E0FC
:102B800008958091800280FF0CC060911C0170E06C
:102B900075956795759567956115710549F1862F4E
:102BA000089581FF06C060911C0170E075956795DE
:102BB000F3CF60911C0182FD0BC090917E0299239E
:102BC000A1F060911B0180911C01961738F0682FCD
:102BD00070E06038710500F38FE70895899FC001A8
:102BE000112470E00E94E622F4CF61E070E0D7CFBC
:102BF00081E008958D3C29F486DF819580938402DD
:102C000008958E3C11F47FDFF9CF8F3C29F47BDFF0
:102C10008195809383020895803D11F474DFF9CF8C
:102C2000893D21F4AEDF8093850208958A3D19F431
:102C3000A8DF8195F8CF8B3D29F4A3DF81958093A0
:102C4000860208958C3D11F49CDFF9CF9FE2980F26
:102C5000983070F4815D990B21E030E001C0220FC3
:102C60008A95EAF780918202822B809382020895EE
:102C70008D3D31F4809180028160809380020895BF
:102C80008E3D21F4809180028260F7CF8F3DB9F7AD
:102C9000809180028460F1CF409183028D3C59F491
:102CA0008091840287FF0DC01092840241110BC0F5
:102CB00010927F0208C08E3C81F480918402181625
:102CC0009CF3442381F08091850290918602892BA8
:102CD00009F05AC010927E0208958F3C49F447FFD4
:102CE000F0CF10928302809184028111ECCFE0CF6B
:102CF000803D19F41416ACF3E4CF90918502893D20
:102D000029F41916F4F610928502DBCF8A3D19F4E6
:102D100097FFD7CFF8CF909186028B3D29F497FF8C
:102D2000D0CF10928602CDCF8C3D19F41916CCF37A
:102D3000C8CF9FE2980F983090F4815D990B21E005
:102D400030E0B90102C0660F771F8A95E2F7CB0128
:102D5000809590918202892380938202B2CF8D3D2B
:102D600031F4809180028E7F80938002AACF8E3DC5
:102D700021F4809180028D7FF7CF8F3D09F0A1CFA4
:102D8000809180028B7FF0CF0895D3D39C019091E6
:102D9000830280918402982B21F030937D0220934E
:102DA0007C029091850280918602982B21F03093CD
:102DB0007B0220937A0281E892E0D1C186E0E1E8CB
:102DC000F2E0DF011D928A95E9F710927F021092DE
:102DD0007E02109280020895FC01828181110EC052
:102DE000838181110BC08481811108C091E08581AC
:102DF000811101C090E0892F8170089581E0FCCF9E
:102E0000A6E0B0E0E6E0F7E10C940E2386E0E1E80E
:102E1000F2E0DE01119601900D928A95E1F7109291
:102E200083021092840210928502109286028B8196
:102E30009C81892B81F080917C0290917D02FAD255
:102E4000AC0190917F029923A9F180912001841710
:102E5000150608F43CC08D819E81892B89F08091F4
:102E60007A0290917B02E6D2AC0190917E02992386
:102E700009F463C080911D018417150608F46BC026
:102E8000BE016F5F7F4F81E892E030D2811104C0B4
:102E900081E892E0A1DF811178DF86E0FE013196C2
:102EA000A1E8B2E001900D928A95E1F72696E3E061
:102EB0000C942A23209179028AE0289F9001112402
:102EC0002417350740F69F5F90937F0202C09F3F13
:102ED000D1F71B81112351F016DE9FEF11160CF470
:102EE00091E0899F802D1124809383021C811123FE
:102EF00051F009DE9FEF11160CF491E0899F802DAF
:102F000011248093840280918302882309F4A3CF43
:102F100010918402112309F49ECFE7DD882349F044
:102F200080938302812FE1DD882329F0809384023E
:102F300092CF81E0F5CF81E0F9CF209178028AE04D
:102F4000289F900111242417350708F099CF9F5F1F
:102F500090937E0202C09F3FD1F71D81112351F053
:102F600010DE9FEF11160CF491E0899F802D112443
:102F7000809385021E81112351F003DE9FEF11160D
:102F80000CF491E0899F802D11248093860280911A
:102F90008502882309F474CF10918602112309F465
:102FA0006FCFA3DD882349F080938502812F9DDDBB
:102FB000882329F08093860263CF81E0F5CF81E0FA
:102FC000F9CF0F931F93CF93DF93C42FD22FFC0120
:102FD00085818823C1F040938902ABD29093880207
:102FE0008093870280E28C0F883040F4C77081E0C4
:102FF00001C0880FCA95EAF70E946004DF91CF9163
:103000001F910F91089510918902141331C080917E
:103010008702909188020ED2883C910548F5C0E263
:10302000CD0F1D17B9F080E2810F883040F4177082
:1030300081E001C0880F1A95EAF70E946504C83044
:1030400048F481E09D2F977001C0880F9A95EAF7A8
:103050000E946004802F0E945904C83078F6D7700F
:1030600081E001C0880FDA95EAF70E946504C6CFB7
:1030700080E28C0F883010F6C77081E001C0880FA5
:10308000CA95EAF7F2CF0F93DB0188519C4787304E
:10309000910598F5FC01E553FC4D0C94F92206E2EC
:1030A00021EE41EE6AE17CE7CD018BDF80E00F91FC
:1030B000089507E225EE45EE6BE17CE7F5CF06E2E9
:1030C00021EE40EE68E17CE7EFCF07E225EE44EE2B
:1030D00069E17CE7E9CF06E221EE42EE6CE17CE7B4
:1030E000E3CF07E225EE46EE6DE17CE7DDCF08E2B7
:1030F00021E045EE6EE17CE7D7CF15968C918823D1
:1031000019F010928902D3CF81E0D1CF9093900231
:1031100080938F020895A0D8811103C080918A0204
:103120000895E0918F02F0919002309739F001906C
:10313000F081E02D309711F00995089580E0089511
:10314000EACF0895E0918F02F0919002309731F02C
:103150000280F381E02D309709F009950895E09100
:103160008F02F0919002309759F026813781232BFE
:1031700039F022E0DC012C930680F781E02D0995DF
:103180000895A3E0B0E0E7ECF8E10C940F23209160
:103190008D0230918E0228173907B1F090938E027C
:1031A00080938D02E0918F02F0919002309761F050
:1031B0000084F185E02D309739F023E029839B834B
:1031C0008A83CE01019609952396E2E00C942B2385
:1031D000A3E0B0E0EEEEF8E10C940F2320918B0217
:1031E00030918C0228173907B1F090938C028093AC
:1031F0008B02E0918F02F0919002309761F0008491
:10320000F185E02D309739F024E029839B838A8370
:10321000CE01019609952396E2E00C942B23409170
:103220000001509101019A012E5F3F4F485F5F4FAF
:1032300080E02417350709F40895F90191919F0161
:103240009923B9F38F5FF5CF882371F020910001A6
:1032500030910101F9013296285F3F4F9191981703
:1032600029F0E217F307D1F780E0089581E008958F
:103270009C01FC0132969FEF80E04191461751F08E
:103280009F3F19F4411101C0982F8F5F8630A9F735
:103290009F3F09F40895290F311D97FD3A95F901D3
:1032A00062830895FC01329608962191261303C08B
:1032B000DF0111971C92E817F907B9F70895682FF5
:1032C0008091000190910101D3CF682F809100017E
:1032D00090910101E7CFE0910001F0910101329658
:1032E00086E0DF011D928A95E9F70895DC01FB0174
:1032F00011969C9111978181981322C012968C91FE
:103300001297882319F0928189131AC013968C9111
:103310001397882319F09381891312C015968C9105
:103320001597882319F0958189130AC014969C91EA
:10333000992321F081E02481291303C080E001C09A
:1033400081E0817008950895FECF089581110CC029
:1033500081E080932401609121017091220180918C
:10336000230190912401F0CF82E0F3CF83E080939A
:10337000240160912101709122018091230190919B
:103380002401E2CFE3CF089581E08093240160918E
:103390002101709122018091230190912401D4CFC9
:1033A000F3CF089591E0811101C090E09093230143
:1033B000609121017091220180912301909124015B
:1033C000C3CF809123010895809322016091210150
:1033D000709122018091230190912401B5CF8091B9
:1033E00022010895809321016091210170912201B1
:1033F0008091230190912401A7CF8091210108950C
:1034000008950895FECF089508950895F9CF089579
:10341000CF93FADF0E94A910F8DFC0E08C2F0E9442
:10342000920F811105C0CF5FCC30C1F7CF910895C5
:1034300081E0FCCFCF93DF93EC017BD08C1B9D0B05
:10344000DF91CF910895CF92DF92EF92FF926B01BF
:103450007C017BD06C197D098E099F09FF90EF904C
:10346000DF90CF90089585B7806885BF85B7806865
:1034700085BF08951F921FB61F9211248F939F93AB
:10348000AF93BF9380919102811113C08091BA02D2
:103490009091BB02A091BC02B091BD024196A11DCA
:1034A000B11D8093BA029093BB02A093BC02B0936B
:1034B000BD02BF91AF919F918F911F901FBE1F9032
:1034C00018958091C202843031F10E94F00210926E
:1034D000910288E190E020E40FB6F894A8958093DB
:1034E00060000FBE2093600083B7817F846083BF3C
:1034F00083B7816083BF7894889583B78E7F83BFBD
:103500000FB6F894A8958091600088618093600060
:10351000109260000FBE08950E9474060C94F4028D
:1035200082E084BD93E095BD9AEF97BD80936E00D5
:1035300008952FB7F8948091BA029091BB02A091A0
:10354000BC02B091BD022FBF08952FB7F8946091CF
:10355000BA027091BB028091BC029091BD022FBF54
:10356000089578941F921FB61F9211248F939F93F2
:10357000AF93BF938091BA029091BB02A091BC021D
:10358000B091BD020196A11DB11D8093BA02909326
:10359000BB02A093BC02B093BD02BF91AF919F91BB
:1035A0008F911F901FBE1F90189587E797E7909304
:1035B00001088093000888E19AE00FB6F894A89576
:1035C000809360000FBE90936000FFCF88E19AE087
:1035D0000FB6F894A895809360000FBE909360009A
:1035E000FFCF8EE1489B02C08150E1F7489BFECFA0
:1035F0000895589880E28A95F1F7589A0895FC0149
:103600003BE03A95F1F798E020E080E031E040E1DE
:103610004A95F1F7880F489B02C08160232742E05A
:103620004A95F1F7000040E14A95F1F7915079F79A
:1036300090E19A95F1F799B132E03A95F1F70000EF
:1036400040E14A95F1F7917092272081920F908383
:103650000895A1E0B0E0EEE2FBE1DDC719828C0144
:103660007C01E60EF11C0E151F0539F481E09981ED
:10367000911180E02196E6E0EAC7B3DFCE01019622
:10368000BEDFF80181938F01EECF509A589A0895CA
:103690005098589AE89AE9E6F0E080818C7F808320
:1036A00008956150770B91E001C0990F6A95EAF790
:1036B00020E031E0911108C0222391F0589A80E275
:1036C0008A95F1F758980895492F482339F0589A68
:1036D000232740E24A95F1F79695ECCF5898F9CF19
:1036E0005898EDCFFF920F931F93CF93DF93EC0188
:1036F0008C01060F111DC017D10721F4CDB7DEB71D
:10370000E5E0A6C7F99075DF68E08F2DCADFF3CF3B
:103710001F920F920FB60F9211240F931F932F93A6
:103720003F934F935F936F937F938F939F93AF9349
:10373000BF93EF93FF93CF93DF930F92CDB7DEB795
:1037400019824FDFCE0101965ADF082F06950695A4
:103750000695282F22952570902F9570290F922F6E
:10376000937026952695920F982797708981982BAC
:1037700009F058C0043008F055C080E18A95F1F78F
:10378000589A509A82E08A95F1F700C0589888E0DC
:10379000089F80011124D801AD5FBE4F1696ED91B0
:1037A000FC9117973097A9F06091AD017091AE012F
:1037B00014962D913C911597260F371F11968D91D8
:1037C0009C911297680F791F13964C9113978C91C7
:1037D0000995F801ED5FFE4F6381662349F0209162
:1037E000AD013091AE0184819581820F931F7ADF04
:1037F00000DF80E18A95F1F758985098589A80E157
:103800008A95F1F7F801ED5FFE4F6081662349F07C
:103810002091AD013091AE0181819281820F931F81
:1038200018DFDFDE0F90DF91CF91FF91EF91BF9115
:10383000AF919F918F917F916F915F914F913F9148
:103840002F911F910F910F900FBE0F901F90189501
:103850000F931F93CF93DF93EC0104970CF049C0B3
:10386000F894509A589885E08A95F1F700009C2FBB
:10387000969595708C2F8570980F892F83709695EB
:10388000969523E0CC0FDD1F2A95E1F7980F8E0166
:10389000092BAFDE00C068E0802F03DF80E18A954E
:1038A000F1F75098589A489B1DC087E090E04899DE
:1038B0001BC0FE01ED5FFE4F63816623F1F0209196
:1038C000AD013091AE0184819581820F931FC1DEDD
:1038D000811113C0509A589A7894DF91CF911F911B
:1038E0000F91089500C0DFCF019729F4509A589A9C
:1038F000789480E0F2CF00C0DACF73DE80E28A9560
:10390000F1F75898509A80E18A95F1F7CD5FDE4F34
:103910006881662349F02091AD013091AE01898123
:103920009A81820F931FDEDE64DE789481E0D5CF2A
:1039300008959B01BA019091C2029430E1F48F7016
:103940008093E9009FEF8091E800915085FD06C0CB
:1039500085ED8A95F1F700009111F5CF8091E8008F
:1039600085FF09C050E040E0C901B5D18091E80071
:103970008E778093E800089543E050E0BC0182E038
:10398000D8CF46E050E0BC0182E0D3CFCF93DF93A5
:10399000EC0117DD48E050E0BE0181E0CADF88E0BD
:1039A000FE01A2E9B2E001900D928A95E1F7DF9164
:1039B000CF9108958091C102811107C01AD371D3AC
:1039C0008091E20084608093E20008951092C10229
:1039D0000895DADC81E0E6CC6091BE0281E06111FD
:1039E00001C080E0C3CC9091C20281E0943009F024
:1039F00080E06091BE02C6CC42E061EC81E075D20D
:103A000042E261EC82E071D29091C20281E0943096
:103A100009F080E06091BE0299CC8091C4028330AD
:103A200009F45EC030F48130C1F1823009F494C0F1
:103A300008958A3009F483C08B3009F46BC0893053
:103A400009F04DC08091C302813209F048C08091D5
:103A5000C7029091C802029708F041C08091E80027
:103A6000877F8093E8008091E80082FF34C09091C6
:103A7000F3008091F200029731F48091F1008130DF
:103A800011F0863019F48091F1009EDC8091E800FD
:103A90008B778093E8005DD222C08091C302813A87
:103AA000F1F48091E800877F8093E8008091C7025D
:103AB0009091C802892B59F468E082E992E070E0A5
:103AC00057D18091E8008B778093E800089560E0FB
:103AD00090E080E0F4CF8091C2028111C4CF0895BC
:103AE0008091C302813AD9F78091C7029091C802B0
:103AF000892BA9F78091E800877F8093E800809167
:103B0000E80080FFFCCF5DDC8093F1008091E8004D
:103B10008E77BFCF8091C302813209F78091C702AF
:103B20009091C802892BD9F68091E800877F809315
:103B3000E8000FD28091C50235DC0C9474068091A8
:103B4000C302813261F68091E800877F8093E800AC
:103B500000D28091C60246CC8091C302813A09F01E
:103B6000BECF8091E800877F8093E8008091E800D5
:103B700080FFFCCF42DCC8CF84B7877F84BF0FB6FD
:103B8000F894A895809160008861809360001092FD
:103B900060000FBE80E890E00FB6F894809361005B
:103BA000909361000FBEFCCB24D27BD2E2EEF0E01A
:103BB0008081846080837894DEC485E291E0A6CA27
:103BC0008091C202853029F48091C202853011F0C3
:103BD000A3CC089576DC1CDC8823B1F38091C0026D
:103BE000882391F362D00E947406EECF08959A0163
:103BF0004091C9025091CA0200C0492F5527433055
:103C0000510519F168F44130510509F444C04230BE
:103C1000510509F445C090E080E050E040E025C047
:103C20004132510549F142325105A9F784E490E04F
:103C300046E653E061157105C1F08BE790E04BEE6D
:103C400052E06130710589F0E6CF99278130910506
:103C500081F0009729F00297F1F6ECE5F2E002C05E
:103C6000EAE9F2E0849190E0AF01F90151834083E9
:103C70000895EAE8F2E0F6CF89E090E040EB52E008
:103C80006115710591F389E090E049EC52E06130F3
:103C9000710559F3C0CF82E190E049ED52E0E5CFE4
:103CA0008BE390E04EE952E0E0CF80E189BD82E114
:103CB00089BD09B400FEFDCF8091D8008F7D80932F
:103CC000D8008091E00082608093E0008091E00065
:103CD00081FDFCCF0895AF92BF92CF92DF92FF9209
:103CE0000F931F93CF93DF936C01EB018A0150D1A7
:103CF000F82E811123C00115110539F0F8018081DA
:103D00009181C81BD90BC80ED91EB12CA12C2097AC
:103D1000A9F08091E80085FD21C08091E8008E77B0
:103D20008093E80001151105A1F0F80180819181CF
:103D3000A80EB91EB182A08285E0F82E8F2DDF91EA
:103D4000CF911F910F91FF90DF90CF90BF90AF90D8
:103D500008951ED18823D9F2F82EF0CFF601819173
:103D60006F018093F1002197FFEFAF1ABF0ACFCF09
:103D7000FC018091C9029091CA0286179707A0F0B2
:103D80006115710529F49091E8009E779093E80001
:103D900090E06115710551F4911108C08091E8001F
:103DA00082FF34C080E00895BC01F2CF8091C2024E
:103DB0008823C1F18530C1F18091E80083FD30C0D6
:103DC0008091E80082FDEACF8091E80080FFE1CF9A
:103DD0008091F3002091F200382F6115710519F0E0
:103DE0002830310558F091E02830310509F090E095
:103DF0002091E8002E772093E800CBCF819180932B
:103E0000F100615071092F5F3F4FE7CF8091C202EF
:103E1000882341F0853041F08091E80083FFBECFD8
:103E200081E0089582E0089583E00895FC01809187
:103E3000C9029091CA0286179707A0F06115710513
:103E400029F48091E8008E778093E80090E0611576
:103E5000710551F4911108C08091E80082FF35C0CE
:103E600080E00895BC01F2CF8091C2028823C9F19D
:103E70008530C9F18091E80083FD31C08091E80070
:103E800082FDEACF8091E80080FFE1CF8091F300CE
:103E90002091F200382F6115710519F02830310595
:103EA00058F091E02830310509F090E08091E80069
:103EB0008E778093E800CBCF84918093F100319688
:103EC000615071092F5F3F4FE6CF8091C202882376
:103ED00041F0853041F08091E80083FFBDCF81E063
:103EE000089582E0089583E00895982F973028F090
:103EF0008F708093E90081E008959093E900242F6A
:103F0000762F50E0981731F07091EC002091ED0081
:103F10005091F00021FD02C09F5FE8CF3091EB008F
:103F20003E7F3093EB003091ED003D7F3093ED000C
:103F30003091EB0031603093EB007093EC002093F4
:103F4000ED005093F0002091EE0027FDE5CF80E0DA
:103F500008958091C30287FF13C08091E80082FF1B
:103F600006C08091E8008B778093E80004C08091C0
:103F7000C2028111F2CF08958091C2028823D9F341
:103F80008091E80080FFF8CF8091E8008E77ECCF39
:103F90002091E4003091E50095E6A9012091EC0024
:103FA000822F817020FF06C08091E80080FF06C04C
:103FB00080E008952091E80022FD1AC08091C2029D
:103FC000882389F0853089F08091EB0085FD0FC052
:103FD0002091E4003091E50042175307F9F2915027
:103FE000E1F684E0089582E0089583E0089581E099
:103FF000089567D06ED0E0EEF0E08081816080832C
:10400000E8EDF0E080818F77808319BCA7EDB0E008
:104010008C918E7F8C9380818F7E80831092C102E1
:1040200008950F931F93CF93DF934BD052D0C8EDD9
:10403000D0E088818F7788838881806888838881B1
:104040008F7D888319BC1092C2021092BE0210921A
:10405000C0021092BF0200EE10E0F80180818B7F59
:10406000808388818160888342E060E080E03DDF7A
:10407000E1EEF0E080818E7F8083E2EEF0E08081EF
:1040800081608083808188608083F80180818E7F59
:104090008083888180618883DF91CF911F910F9108
:1040A0000895E8EDF0E080818F7E8083E7EDF0E019
:1040B00080818160808384E082BF81E08093C1023F
:1040C000B0CFE8EDF0E080818E7F80831092E20037
:1040D00008951092DA001092E10008951F920F9255
:1040E0000FB60F9211242F933F934F935F936F93CB
:1040F0007F938F939F93AF93BF93EF93FF938091A1
:10410000E10082FF0AC08091E20082FF06C0809138
:10411000E1008B7F8093E1002DD28091DA0080FF57
:1041200018C08091D80080FF14C08091DA008E7F83
:104130008093DA008091D90080FF91C080E189BD31
:1041400082E189BD09B400FEFDCF81E08093C20207
:1041500031DC8091E10080FF18C08091E20080FF97
:1041600014C08091E2008E7F8093E2008091E20093
:1041700080618093E2008091D80080628093D800B3
:1041800019BC85E08093C20227DC8091E10084FFA6
:104190002AC08091E20084FF26C080E189BD82E1CF
:1041A00089BD89B5982F917080FFFBCF8091D80091
:1041B0008F7D8093D8008091E1008F7E8093E10015
:1041C0008091E2008F7E8093E2008091E200816026
:1041D0008093E2008091BE02882309F445C084E008
:1041E0008093C20200DC8091E10083FF27C08091B0
:1041F000E20083FF23C08091E100877F8093E1008C
:1042000082E08093C2021092BE028091E1008E7F14
:104210008093E1008091E2008E7F8093E2008091A4
:10422000E20080618093E20042E060E080E05DDED9
:104230008091F00088608093F000CBDBFF91EF91DC
:10424000BF91AF919F918F917F916F915F914F91AE
:104250003F912F910F900FBE0F901F90189519BC92
:104260001092C202B3DB75CF8091E30087FD93E02B
:104270009093C202B7CF1F920F920FB60F921124E4
:104280002F933F934F935F936F937F938F939F935E
:10429000AF93BF93CF93DF93EF93FF93D091E90058
:1042A000DF708091EC00C82FC17080FDC0E81092D3
:1042B000E9008091F000877F8093F00078941ED011
:1042C0001092E9008091F00088608093F000CD2B7F
:1042D000CF70C093E900FF91EF91DF91CF91BF9133
:1042E000AF919F918F917F916F915F914F913F918E
:1042F0002F910F900FBE0F901F901895AAE2B0E07B
:10430000E3E8F1E28BC183EC92E02091F100FC0143
:104310002193CF01F2E08B3C9F07B9F77EDB8091C0
:10432000E80083FF16C18091C3029091C4029A30C5
:1043300008F00FC1E92FF0E0EE52FC4D5AC1803871
:1043400099F0823809F005C18091C7028F708730DB
:1043500008F0FFC08093E9008091EB0085FB88277F
:1043600080F91092E90006C08091BF029091C002CE
:10437000911182609091E800977F9093E80080937C
:10438000F1001092F1008091E8008E77DFC0882361
:1043900009F4CDC0823009F0DCC08091C5028111E2
:1043A000D0C08091C7028F702FEF280F263008F001
:1043B000D0C08093E9002091EB0020FFC2C0933071
:1043C00031F48091EB0080628093EB00BAC0909151
:1043D000EB0090619093EB0021E030E001C0220FF0
:1043E0008A95EAF72093EA001092EA008091EB00A8
:1043F0008860EACF8111ADC01091C5021F7780910E
:10440000E3008078812B8093E3008091E800877F30
:104410008093E8009EDD8091E80080FFFCCF8091D2
:10442000E30080688093E30082E0111183E08093D1
:10443000C2028FC08058823008F08BC08091C502C4
:104440009091C6028C3D23E0920799F583E08A8320
:104450008AE289834FB7F894DE01139620E03EE0AC
:1044600051E2E32FF0E050935700E49120FF03C0A6
:10447000E295EF703F5FEF708E2F90E0EA30B8F07A
:10448000C7968D939D932F5F243159F74FBF80912D
:10449000E800877F8093E8006AE270E0CE01019631
:1044A00067DC8091E8008B778093E80052C0C0966B
:1044B000E8CF6091C7027091C802AE014F5F5F4FB5
:1044C00096DBBC01892B09F444C09091E800977FEA
:1044D0009093E80089819A81A9DCE3CF8038C9F5FF
:1044E0008091E800877F8093E8008091BE028093EE
:1044F000F10049CF81112DC09091C502923048F54D
:104500008091E800877F8093E8009093BE0221DDD0
:104510008091BE02882311F084E005C08091E30001
:1045200087FDFACF81E08093C20266DA12C08091E3
:10453000C502813071F481E0933009F080E080930E
:10454000C0021092E9008091E800877F8093E80024
:1045500000DD8091E80083FF0AC08091E800877F3A
:104560008093E8008091EB0080628093EB00AA9634
:10457000E3E070C00895CF938091C202882399F040
:10458000C091E900CF709091EC00892F817090FD6F
:1045900080E8C82B1092E9008091E80083FDAEDE30
:1045A000CF70C093E900CF91089523DD1092C2022D
:1045B0000895E8EDF0E08081806180838AE18A954A
:1045C000F1F700C08091D9008170089597FB072E04
:1045D00016F4009406D077FD08D048D007FC05D02B
:1045E0003EF4909581959F4F0895709561957F4F0A
:1045F0000895EE0FFF1F0590F491E02D09942F927E
:104600003F924F925F926F927F928F929F92AF9262
:10461000BF92CF92DF92EF92FF920F931F93CF93AF
:10462000DF93CDB7DEB7CA1BDB0B0FB6F894DEBF46
:104630000FBECDBF09942A88398848885F846E846C
:104640007D848C849B84AA84B984C884DF80EE80B6
:10465000FD800C811B81AA81B981CE0FD11D0FB6BF
:10466000F894DEBF0FBECDBFED010895AA1BBB1BA2
:1046700051E107C0AA1FBB1FA617B70710F0A61B62
:10468000B70B881F991F5A95A9F780959095BC0183
:10469000CD010895FB01DC0104C08D9101908019CA
:1046A00021F441505040C8F7881B990B0895FB0135
:1046B000DC0102C001900D9241505040D8F708959E
:1046C000F999FECF92BD81BDF89A992780B50895DA
:1046D000A8E1B0E042E050E020C0262FF999FECFDB
:1046E00092BD81BDF89A019700B4021639F01FBA45
:1046F00020BD0FB6F894FA9AF99A0FBE0895039662
:10470000272FECDFEADF252FE9DF242FE7CF019603
:10471000272FE4DFE2CFDC01CB01FC01F999FECFCA
:1047200006C0F2BDE1BDF89A319600B40D92415039
:104730005040B8F70895F894FFCFA804A804DE0409
:10474000DE0437055305D004D0045705C005CC0559
:10475000CC05F3146515FB14C514C914FF14CD144E
:1047600003150F15D9145E15DD141315E114171573
:104770003F15E5141B154615EB1421152915D11409
:104780000715D5140B15EF14251535154F155C15A8
:10479000BF14F7146C155F1865184F1859186B186B
:1047A000711877189F21C721A922C721A922FA21B0
:0847B0001A22A9226E227A22CE
:1047B8002C020100000001000000000000000601BA
:1047C80000000004070000000000002808503C0713
:1047D8001400000100EF19C61C981CC11CBC1CE287
:1047E80000E900EA00B500B600B700CD008301CCAF
:1047F800008A019201940121022302240225022643
:104808000227022A02B300B4006F0070009F01CB98
:10481800019F02A002818283E200E900EA00B5005C
:10482800B600B700CD008301CC008A019201940143
:104838002102230224022502260227022A02B300AB
:10484800B4006F0070009F01CB019F02A00281821B
:1048580083946697C63435F6F731333236560200FC
:00000001FF
